:100000000C9434000C943E000C943E000C943E0082
:100010000C943E000C943E000C943E000C943E0068
:100020000C943E000C943E000C943E000C943E0058
:100030000C943E000C943E000C943E000C943E0048
:100040000C943E000C943E000C943E000C943E0038
:100050000C943E000C943E000C943E000C943E0028
:100060000C943E000C943E0011241FBECFEFD8E04C
:10007000DEBFCDBF0E9440000C945B000C940000DA
:100080008AB18FEF8AB91BB89AEA85E59BB92FEF41
:1000900033ED40E3215030404040E1F700C0000024
:1000A0008BB92FEF33ED40E3215030404040E1F772
:0A00B00000C00000EBCFF894FFCF72
:00000001FF
