:100000000C943A000C9457000C9457000C94570031
:100010000C9457000C9457000C9457000C94570004
:100020000C9457000C9457000C9457000C945700F4
:100030000C9457000C9457000C9457000C945700E4
:100040000C9457000C9457000C9457000C945700D4
:100050000C9457000C9457000C9457000C945700C4
:100060000C9457000C9457006364696E6F7073753D
:1000700078585B0011241FBECFEFD8E0DEBFCDBFA4
:1000800011E0A0E0B1E0ECE0F2E102C005900D92D9
:10009000A237B107D9F721E0A2E7B1E001C01D9274
:1000A000AC37B207E1F70E947B000C9404090C9472
:1000B00000009091C00095FFFCCF8093C60008958A
:1000C0008091C00087FFFCCF8091C60090E008952A
:1000D00026E02093C2001092C0009093C500809348
:1000E000C40088E18093C100089587B18F6387B908
:1000F00088B188B90895CF93DF931F92CDB7DEB74B
:1001000087E690E00E9468000E94750060E070E061
:1001100089E590E00E943601909375018093740107
:1001200060E670E080E090E00E94360190937301F9
:100130008093720186E091E00E94970183E1282E6E
:1001400081E0382E90E3492E91E0592E24E6622E6C
:1001500021E0722E0AE411E03DE3E32E31E0F32EBC
:1001600047E5C42E41E0D42E56E1A52E51E0B52E30
:1001700063E2862E61E0962E81E090E08C0F9D1F59
:100180009F938F933F922F920E94C70189810F9076
:100190000F900F900F90823379F188F4803309F13A
:1001A000813309F04FC098B182E0892788B988B1BE
:1001B000869581701F928F939F928F9247C0843350
:1001C000A9F138F18533F1F588B120E2822788B9A9
:1001D00088B185FB882780F91F928F93DF92CF9299
:1001E00035C098B181E0892788B988B181701F92A4
:1001F0008F93BF92AF922AC088B194E0892788B9C3
:1002000088B182FB882780F91F928F935F924F926B
:100210001DC088B128E0822788B988B183FB882770
:1002200080F91F928F93FF92EF9210C088B190E1F6
:10023000892788B988B1829581701F928F931F9307
:100240000F9304C01F928F937F926F920E9481013F
:100250000F900F900F900F908FEF91EE24E0815050
:1002600090402040E1F700C0000086CF0F931F931D
:10027000CF93DF93009731F46115710519F480E095
:1002800090E03AC08B01EC016EE070E081E090E01C
:100290000E946B06FC01892B91F380E88383011592
:1002A000110571F01387028781E8838380917201C1
:1002B00090917301892B21F4F0937301E093720103
:1002C0002097C9F0D187C087838182608383809122
:1002D000740190917501892B71F4F0937501E0938D
:1002E00074018091760190917701892B21F4F0932C
:1002F0007701E0937601CF01DF91CF911F910F91AC
:100300000895A0E0B0E0E7E8F1E00C94DD08AE016C
:100310004B5F5F4FFA0161917191AF018091740160
:10032000909175010E94DD01E2E00C94F9080F93B1
:100330001F93CF93DF93E0917401F09175012381B6
:1003400021FF1BC08C01D0E0C0E0F80181918F013A
:100350006091740170917501DB011896ED91FC912B
:100360001997882331F00995892B79F3DFEFCFEFC7
:10037000ECCF8AE00995892B19F08FEF9FEF02C02F
:100380008D2F9C2FDF91CF911F910F910895A0E0A9
:10039000B0E0EDECF1E00C94DD08AE014B5F5F4F97
:1003A000FA0161917191AF01809172019091730195
:1003B0000E945A05E2E00C94F908ABE0B0E0E3EEED
:1003C000F1E00C94CD086C017B018A01FC011782DD
:1003D0001682838181FFCCC1CE0101963C01F601DA
:1003E0009381F70193FD859193FF81917F0188238C
:1003F00009F4BAC1853239F493FD859193FF819157
:100400007F01853229F4B60190E00E941708E7CFFA
:10041000912C212C312CFFE1F315D8F08B3279F09F
:1004200038F4803279F08332A1F4232D20611DC08D
:100430008D3261F0803369F4232D216016C0832D45
:100440008260382EE32DE4603E2E2AC0F32DF86042
:100450001DC037FC2DC020ED280F2A3040F08E3211
:10046000B9F436FC81C1232D2064322E19C036FE2A
:1004700006C08AE0989E200D1124922E11C0EAE059
:100480002E9E200D1124222EF32DF0623F2E08C047
:100490008C3621F4832D8068382E02C0883641F4D2
:1004A000F70193FD859193FF81917F018111B3CF76
:1004B000982F9F7D9554933028F40C5F1F4F9FE336
:1004C00099830DC0833631F0833771F0833509F09D
:1004D00059C021C0F801808189830E5F1F4F882495
:1004E0008394912C530113C02801F2E04F0E511C4C
:1004F000F801A080B18036FE03C0692D70E002C013
:100500006FEF7FEFC5010E94CE074C018201F32DF2
:10051000FF773F2E16C0280122E0420E511CF80141
:10052000A080B18036FE03C0692D70E002C06FEF7D
:100530007FEFC5010E94BC074C01F32DF0683F2EF0
:10054000820133FC1BC0822D90E088169906B0F41E
:10055000B60180E290E00E9417082A94F4CFF501DA
:1005600037FC859137FE81915F01B60190E00E94D2
:10057000170821102A9421E0821A9108811491040D
:1005800071F7E8C0843611F0893641F5F80137FE7D
:1005900007C060817181828193810C5F1F4F08C009
:1005A00060817181072E000C880B990B0E5F1F4F25
:1005B000F32DFF763F2E97FF09C09095809570959B
:1005C00061957F4F8F4F9F4FF0683F2E2AE030E0BC
:1005D000A3010E946C08882E861845C0853731F427
:1005E000232D2F7EB22E2AE030E025C0932D997F57
:1005F000B92E8F36C1F018F4883579F0B5C0803740
:1006000019F0883721F0B0C0E92FE061BE2EB4FEAA
:100610000DC0FB2DF460BF2E09C034FE0AC0292F87
:100620002660B22E06C028E030E005C020E130E0B0
:1006300002C020E132E0F801B7FE07C0608171819D
:10064000828193810C5F1F4F06C06081718180E0C1
:1006500090E00E5F1F4FA3010E946C08882E861841
:10066000FB2DFF773F2E36FE0DC0232D2E7FA22EB1
:10067000891458F434FE0BC032FC09C0832D8E7EE1
:10068000A82E05C0B82CA32C03C0B82C01C0B92CCF
:10069000A4FE0FC0FE01E80DF11D8081803321F41E
:1006A0009A2D997EA92E09C0A2FE06C0B394B394D8
:1006B00004C08A2D867809F0B394A3FC11C0A0FE73
:1006C00006C0B21488F4280C922C9B180EC0B214E9
:1006D00060F4B60180E290E00E941708B394F7CF6F
:1006E000B21418F42B1802C0982C212CA4FE10C0B0
:1006F000B60180E390E00E941708A2FE17C0A1FC9B
:1007000003C088E790E002C088E590E0B6010CC025
:100710008A2D867859F0A1FE02C08BE201C080E2EA
:10072000A7FC8DE2B60190E00E941708891438F406
:10073000B60180E390E00E9417089A94F7CF8A945C
:10074000F301E80DF11D8081B60190E00E941708C9
:100750008110F5CF222009F442CEB60180E290E06C
:100760000E9417082A94F6CFF6018681978102C06D
:100770008FEF9FEF2B96E2E10C94E90820FD09C072
:10078000FC0123FD05C022FF02C0738362835183F5
:100790004083089544FD17C046FD17C0AB01BC015E
:1007A000DA01FB01AA0FBB1FEE1FFF1F1094D1F748
:1007B0004A0F5B1F6E1F7F1FCB01BA01660F771FA9
:1007C000881F991F09C033E001C034E0660F771F0E
:1007D000881F991F3150D1F7620F711D811D911D26
:1007E00008950F931F93CF93DF938C01C8010E944C
:1007F000D907EC0197FD08C00E94A807892BB1F723
:10080000B801CE010E945308CE01DF91CF911F9114
:100810000F9108958F929F92AF92BF92EF92FF92A5
:100820000F931F93CF93DF938C01D62F7A01B22EB3
:100830000E94D9079C0133272B32310531F02D322C
:10084000310561F48B2D8068B82ED15011F480E011
:1008500068C0C8010E94D90797FDF9CFCB2DCD7F85
:100860002B2D207309F58033F9F4AA24AA94AD0E38
:1008700009F443C0C8010E94D90797FD3EC09C01FE
:100880002F7D33272835310549F4C264D250A9F1B0
:10089000C8010E94D90797FF07C02FC0B6FE02C04B
:1008A000C26001C0C261DA2D812C912C540120ED6F
:1008B000280F283080F0C4FF04C0B8010E945308FC
:1008C00019C02A3040F0C6FFF8CF2F7D3FEE320F1F
:1008D000363098F727504C2FC501B4010E94CA0347
:1008E0004B015C01C260D15059F0C8010E94D90788
:1008F00097FFDDCFC1FD04C0AACF812C912C5401FC
:10090000C7FF08C0B094A09490948094811C911C5F
:10091000A11CB11C2C2FB501A401C7010E94BE036C
:1009200081E0DF91CF911F910F91FF90EF90BF90E9
:10093000AF909F908F900895A0E2B0E0E2EAF4E0DB
:100940000C94D0085C01962E7A01F9018E010F5F9C
:100950001F4F680180E2D8011D928A95E9F7D50101
:1009600013968C9080E090E0612C712C30E061E077
:1009700070E083FC259183FE21918F01522E21117D
:1009800003C080E090E092C02E3511F4009751F141
:10099000432F50E0481759073CF42D3559F12D32BB
:1009A00019F4772009F103C0772009F46AC0452DB6
:1009B000469546954695D601A40FB11D452D477025
:1009C0008B0102C0000F111F4A95E2F7A8015C914C
:1009D000452B4C93651459F0561410F45394E7CFFB
:1009E0005A94E5CF31E004C07724739401C0712C90
:1009F0000196BFCF772019F08E8180628E833111EE
:100A000003C08824839417C0F6019E012F5D3F4FD9
:100A10008081809581932E173F07D1F7F2CFE114A3
:100A2000F10429F0D7018C93F70131967F019A9454
:100A3000812C9920F9F0C5010E94D90797FD18C0B3
:100A4000FC01FF2723E0F595E7952A95E1F7EC0DEA
:100A5000FD1D208130E0AC014770552702C035955F
:100A600027954A95E2F720FDDACFB5010E94530899
:100A7000811087CFE114F10411F0D7011C92C80155
:100A800015C0422F469546954695D601A40FB11D37
:100A9000422F47708B0102C0000F111F4A95E2F7E9
:100AA000A8015C91452B4C93622EA2CFA096EFE05B
:100AB0000C94EC08A0E0B0E0E0E6F5E00C94D0087F
:100AC0006C01EB015A01FC0117821682512CF601D0
:100AD000E380FE01E3FC8591E3FE8191182FEF0195
:100AE000882309F4EEC090E00E94A807892B21F02A
:100AF000C6010E94F103EBCF153241F4FE01E3FC85
:100B00001591E3FE1191EF01153281F4C6010E94A7
:100B1000D90797FDD4C0412F50E09C0133272417FB
:100B20003507A9F2B6010E945308CBC01A3239F436
:100B3000E3FC1591E3FE1191EF0101E001C000E03B
:100B4000F12C20ED210F2A3080F402606F2D70E02F
:100B500080E090E040E20E94CA03F62EFE01E3FC32
:100B60001591E3FE1191EF01ECCF01FF03C0F110ED
:100B700003C0A7C0FF24FA94183619F01C3651F0B0
:100B800010C0FE01E3FC1591E3FE1191EF01183650
:100B900041F408600460FE01E3FC1591E3FE11914D
:100BA000EF01112309F48DC0612F70E088E690E019
:100BB0000E94B107892B09F484C000FD07C0F5012C
:100BC00080809180C50102965C0102C0812C912C2D
:100BD0001E3651F4F6014681578160E070E0202F07
:100BE000C4010E94BE0373CF1336A9F401FD02C0F5
:100BF000FF24F394C6010E94D90797FD60C08114B9
:100C0000910429F0F4018083C40101964C01FA9407
:100C1000F110F0CF50C01B3559F49E01A4016F2D87
:100C2000C6010E949C04EC01892B09F044C03EC01F
:100C3000C6010E94F10397FD42C01F3661F128F4FE
:100C4000143639F1193651F128C0133771F01537C0
:100C500001F123C08114910429F0F4016082C401E0
:100C600001964C01FA94FF2071F0C6010E94D90749
:100C70003C0197FD08C00E94A807892B59F3B601D3
:100C8000C3010E94530881149104A9F0F401108259
:100C900012C0006203C0006101C00064202FA401E3
:100CA0006F2DC6010E940A04811105C0F6018381DF
:100CB000807329F406C000FD0ACF539408CF552055
:100CC00019F0852D90E002C08FEF9FEFCDB7DEB712
:100CD000EFE00C94EC080F931F93CF93DF93869F64
:100CE0008001879F100D969F100D1124C8010E944E
:100CF0008706EC01009729F0A80160E070E00E94EF
:100D0000C707CE01DF91CF911F910F9108950F93E7
:100D10001F93CF93DF938230910510F482E090E02F
:100D2000E0917A01F0917B0120E030E0A0E0B0E0BA
:100D3000309719F140815181028113814817590779
:100D4000C8F08417950769F4109731F012960C9348
:100D5000129713961C9327C000937A0110937B017E
:100D600022C02115310519F04217530718F49A01D2
:100D7000BD01EF01DF01F801DBCF21153105F9F0ED
:100D8000281B390B2430310580F48A819B81611541
:100D9000710521F0FB019383828304C090937B0152
:100DA00080937A01FE01329644C0FE01E20FF31FE8
:100DB0008193919322503109398328833AC020913D
:100DC000780130917901232B41F420910201309177
:100DD0000301309379012093780120910001309133
:100DE00001012115310541F42DB73EB740910401B1
:100DF00050910501241B350BE0917801F0917901A8
:100E0000E217F307A0F42E1B3F0B2817390778F0E1
:100E1000AC014E5F5F4F2417350748F04E0F5F1F40
:100E200050937901409378018193919302C0E0E05F
:100E3000F0E0CF01DF91CF911F910F910895CF93F3
:100E4000DF93009709F481C0FC013297138212826C
:100E5000A0917A01B0917B01109781F420813181BA
:100E6000820F931F2091780130917901281739075B
:100E700051F5F0937901E093780167C0ED0120E02E
:100E800030E0CE17DF0740F44A815B819E014115B7
:100E90005105F1F0EA01F5CFD383C283408151813E
:100EA000840F951FC817D90759F488819981840F39
:100EB000951F0296918380838A819B81938382838D
:100EC0002115310529F4F0937B01E0937A013DC0AF
:100ED000E901FB83EA8349915991C40FD51FEC17AF
:100EE000FD0761F480819181840F951F0296E901CD
:100EF00099838883828193819B838A83E0E0F0E0F9
:100F000012968D919C911397009719F0FD01DC01C9
:100F1000F7CF8D919C9111979D012E5F3F4F820FCE
:100F2000931F20917801309179012817390769F4CE
:100F3000309729F410927B0110927A0102C013823B
:100F40001282B0937901A0937801DF91CF91089537
:100F500091110C94CA08803219F089508550C8F755
:100F60000895FC010590061621F00020D9F7C00174
:100F700008953197CF010895FC01059061507040AC
:100F80000110D8F7809590958E0F9F1F0895DC0172
:100F900001C06D9341505040E0F70895FC0161504D
:100FA000704001900110D8F7809590958E0F9F1F8B
:100FB0000895CF93DF93EC012B8120FF33C026FFF0
:100FC0000AC02F7B2B838E819F8101969F838E8306
:100FD0008A8190E029C022FF0FC0E881F9818081D9
:100FE000082E000C990B009719F420622B831AC06D
:100FF0003196F983E8830EC0EA85FB85099597FF52
:1010000009C02B81019611F080E201C080E1822BA2
:101010008B8308C02E813F812F5F3F4F3F832E83FC
:10102000992702C08FEF9FEFDF91CF9108950F9323
:101030001F93CF93DF93FB01238121FD03C08FEF2B
:101040009FEF2CC022FF16C0468157812481358135
:101050004217530744F4A081B1819D012F5F3F4F98
:10106000318320838C93268137812F5F3F4F3783D5
:10107000268314C08B01EC01FB010084F185E02D77
:101080000995892BE1F6D80116968D919C911797B9
:10109000019617969C938E931697CE01DF91CF9170
:1010A0001F910F910895FB01238120FF12C026FD9F
:1010B00010C08F3F3FEF930761F082832F7D206444
:1010C000238326813781215031093783268399274D
:1010D00008958FEF9FEF0895FA01AA27283051F164
:1010E000203181F1E8946F936E7F6E5F7F4F8F4F59
:1010F0009F4FAF4FB1E03ED0B4E03CD0670F781FB8
:10110000891F9A1FA11D680F791F8A1F911DA11D9C
:101110006A0F711D811D911DA11D20D009F46894D5
:101120003F912AE0269F11243019305D3193DEF67D
:10113000CF010895462F4770405D4193B3E00FD033
:10114000C9F7F6CF462F4F70405D4A3318F0495D1E
:1011500031FD4052419302D0A9F7EACFB4E0A69501
:101160009795879577956795BA95C9F70097610523
:10117000710508959B01AC010A2E06945795479579
:1011800037952795BA95C9F7620F731F841F951F6E
:10119000A01D08959927882708952F923F924F9276
:1011A0005F926F927F928F929F92AF92BF92CF92F7
:1011B000DF92EF92FF920F931F93CF93DF93CDB700
:1011C000DEB7CA1BDB0B0FB6F894DEBF0FBECDBF78
:1011D00009942A88398848885F846E847D848C8449
:1011E0009B84AA84B984C884DF80EE80FD800C8152
:1011F0001B81AA81B981CE0FD11D0FB6F894DEBF35
:0C1200000FBECDBFED010895F894FFCFA4
:10120C0000007C012000696E697469616C697A6503
:10121C00640D002563004C4544302069732025641F
:10122C000D0A004C4544312069732025640D0A00D9
:10123C004C4544322069732025640D0A004C45440A
:10124C00332069732025640D0A004C454434206911
:10125C00732025640D0A004C454435206973202504
:10126C00640D0A0072656365697665642025630DFB
:02127C000A0066
:00000001FF
