:100000000C9434000C9449000C9449000C94490061
:100010000C9449000C9449000C9449000C9449003C
:100020000C9449000C9449000C9449000C9449002C
:100030000C9449000C9449000C9449000C9449001C
:100040000C9449000C9449000C9449000C9449000C
:100050000C9449000C9449000C9449000C944900FC
:100060000C9449000C94490011241FBECFEFD8E036
:10007000DEBFCDBF12E0A0E0B1E0ECE3F1E002C0F2
:1000800005900D92A030B107D9F70E944B000C9457
:100090009C000C94000084B1866084B910928B009F
:1000A00010928A0080918100886080938100809105
:1000B0008000816A809380008091810081608093BC
:1000C000810088E592E090938B0080938A00E0E0C5
:1000D000F1E0819190E090938B0080938A008FE310
:1000E0009CE90197F1F700C0000091E0EF3FF907AC
:1000F00081F780E090E09093890080938800EFE39F
:10010000FCE93197F1F700C0000005968130F4E07A
:100110009F0789F78FEF93E0909389008093880081
:10012000EFE3FCE93197F1F700C0000005978E3F3F
:0C013000FFEF9F0789F7CBCFF894FFCFBB
:10013C00808386898C909396999C9FA2A5A8ABAE40
:10014C00B1B3B6B9BCBFC1C4C7C9CCCED1D3D5D855
:10015C00DADCDEE0E2E4E6E8EAEBEDEFF0F1F3F412
:10016C00F5F6F8F9FAFAFBFCFDFDFEFEFEFFFFFFCB
:10017C00FFFFFFFFFEFEFEFDFDFCFBFAFAF9F8F6B1
:10018C00F5F4F3F1F0EFEDEBEAE8E6E4E2E0DEDCC7
:10019C00DAD8D5D3D1CECCC9C7C4C1BFBCB9B6B3DC
:1001AC00B1AEABA8A5A29F9C999693908C8986839F
:1001BC00807D7A7774706D6A6764615E5B585552A6
:1001CC004F4D4A4744413F3C393734322F2D2B2871
:1001DC00262422201E1C1A1816151311100F0D0C94
:1001EC000B0A0807060605040303020202010101BB
:1001FC000101010102020203030405060607080AB5
:10020C000B0C0D0F1011131516181A1C1E2022247E
:10021C0026282B2D2F323437393C3F4144474A4D49
:10022C004F5255585B5E6164676A6D7074777A7D66
:00000001FF
