:100000000C9434000C9449000C9449000C94490061
:100010000C9449000C9449000C9449000C9449003C
:100020000C9449000C9449000C9449000C9449002C
:100030000C9449000C9449000C9449000C9449001C
:100040000C9449000C9449000C9449000C9449000C
:100050000C9449000C9449000C9449000C944900FC
:100060000C9449000C94490011241FBECFEFD8E036
:10007000DEBFCDBF11E0A0E0B1E0E8ECFCE002C0E3
:1000800005900D92A832B107D9F70E945D000C943B
:1000900062060C9400008FEF8BB990E398B985B994
:1000A00008951BB88FE088B915B808959FEF9BB9E4
:1000B00088B1806388B995B908958FEF8AB987B1FF
:1000C0008F6387B984B18F6384B911E0D2E004E013
:1000D000C8E05524539472E0672EE4E07E2EF8E0E9
:1000E0008F2EA0E1FA2EB0E2EB2E80E8982E0E942F
:1000F0004B006EE1C62ED12C0E9451002FEF33EC45
:1001000049E0215030404040E1F700C000000E942B
:100110004B005FEF82E597E0515080409040E1F75F
:1001200000C00000E1E0CE1AD10831F70E94510072
:10013000FFEF23EC39E0F15020403040E1F700C000
:10014000000054E0C52ED12C0E94510018B84FEF8A
:1001500053EC89E0415050408040E1F700C000007E
:1001600018B89FEFE3ECF9E09150E040F040E1F780
:1001700000C0000018B82FEF33EC49E021503040A8
:100180004040E1F700C0000018B85FEF83EC99E051
:10019000515080409040E1F700C0000018B9EFEFE7
:1001A000F3EC29E0E150F0402040E1F700C000000E
:1001B000D8B93FEF43EC59E0315040405040E1F7AF
:1001C00000C0000008B98FEF93ECE9E08150904047
:1001D000E040E1F700C00000C8B9FFEF23EC39E0D0
:1001E000F15020403040E1F700C0000018B84FEF58
:1001F00053EC89E0415050408040E1F700C00000DE
:1002000018B89FEFE3ECF9E09150E040F040E1F7DF
:1002100000C0000018B82FEF33EC49E02150304007
:100220004040E1F700C0000018B85FEF83EC99E0B0
:10023000515080409040E1F700C00000C8B9EFEF96
:10024000F3EC29E0E150F0402040E1F700C000006D
:1002500008B93FEF43EC59E0315040405040E1F7DE
:1002600000C00000D8B98FEF93ECE9E081509040D6
:10027000E040E1F700C0000018B9FFEF23EC39E0DF
:10028000F15020403040E1F700C0000041E0C41AC6
:10029000D10809F059CF18B818B818B818B885E0BF
:1002A00090E018B95FEFE3ECF9E05150E040F04026
:1002B000E1F700C0000018B8D8B92FEF33EC49E0DF
:1002C000215030404040E1F700C0000018B808B9A4
:1002D0005FEFE3ECF9E05150E040F040E1F700C09F
:1002E000000018B8C8B92FEF33EC49E02150304076
:1002F0004040E1F700C0000018B8C8B95FEFE3EC78
:10030000F9E05150E040F040E1F700C0000018B8BB
:1003100008B92FEF33EC49E0215030404040E1F77D
:1003200000C0000018B8D8B95FEFE3ECF9E0515015
:10033000E040F040E1F700C0000018B818B92FEF16
:1003400033EC49E0215030404040E1F700C000006C
:1003500018B818B95FEFE3ECF9E05150E040F04015
:10036000E1F700C00000D8B92FEF33EC49E021508D
:1003700030404040E1F700C0000008B95FEFE3EC17
:10038000F9E05150E040F040E1F700C00000C8B98A
:100390002FEF33EC49E0215030404040E1F700C0FE
:1003A000000018B85FEFE3ECF9E05150E040F04096
:1003B000E1F700C0000018B82FEF33EC49E02150FE
:1003C00030404040E1F700C0000018B85FEFE3ECB8
:1003D000F9E05150E040F040E1F700C0000018B8EB
:1003E0002FEF33EC49E0215030404040E1F700C0AE
:1003F0000000019709F055CF0E944B0058B868B82B
:1004000078B888B883E090E020E41BB85FEFE3ECB5
:10041000F9E05150E040F040E1F700C000001BB8A7
:100420003FEF43EC59E0315040405040E1F700C00D
:1004300000001BB8EFEFF3EC39E0E150F040304042
:10044000E1F700C000001BB84FEF53ECE9E041506A
:100450005040E040E1F700C000001BB8FFEF33EC74
:1004600049E0F15030404040E1F700C000001BB8C7
:100470005FEFE3ECF9E05150E040F040E1F700C0FD
:1004800000001BB83FEF43EC59E031504040504072
:10049000E1F700C000001BB8EFEFF3EC39E0E150EA
:1004A000F0403040E1F700C0000015B84FEF53ECCA
:1004B000E9E041505040E040E1F700C0000015B8CD
:1004C000FFEF33EC49E0F15030404040E1F700C02D
:1004D000000015B85FEFE3ECF9E05150E040F04068
:1004E000E1F700C0000015B83FEF43EC59E0315090
:1004F00040405040E1F700C0000015B818B818B8E7
:10050000EFEFF3EC39E0E150F0403040E1F700C0AC
:10051000000015B818B818B84FEF53ECE9E0415097
:100520005040E040E1F700C000001BB9FFEF33ECA2
:1005300049E0F15030404040E1F700C00000DBB935
:100540005FEFE3ECF9E05150E040F040E1F700C02C
:1005500000000BB93FEF43EC59E0315040405040B0
:10056000E1F700C00000CBB9EFEFF3EC39E0E15068
:10057000F0403040E1F700C00000FBB84FEF53EC13
:10058000E9E041505040E040E1F700C00000EBB826
:10059000FFEF33EC49E0F15030404040E1F700C05C
:1005A00000002BB95FEFE3ECF9E05150E040F04080
:1005B000E1F700C000009BB83FEF43EC59E0315039
:1005C00040405040E1F700C0000015B9EFEFF3ECF8
:1005D00039E0E150F0403040E1F700C00000D5B90B
:1005E0004FEF53ECE9E041505040E040E1F700C0EC
:1005F000000005B9FFEF33EC49E0F15030404040D6
:10060000E1F700C00000C5B95FEFE3ECF9E051503D
:10061000E040F040E1F700C00000F5B8C8B9F8B814
:100620003FEF41EE54E0315040405040E1F700C010
:100630000000E5B8C8B9F8B8EFEFF1EE34E0E150EA
:10064000F0403040E1F700C0000015B818B818B805
:100650004FEF53ECE9E041505040E040E1F700C07B
:10066000000015B818B818B8FFEF33EC49E0F150A6
:1006700030404040E1F700C0000015B85FEFE3EC08
:10068000F9E05150E040F040E1F700C0000015B83B
:100690003FEF43EC59E0315040405040E1F700C09B
:1006A000000015B8EFEFF3EC39E0E150F0403040D6
:1006B000E1F700C0000015B84FEF53ECE9E04150FE
:1006C0005040E040E1F700C000001BB8FFEF33EC02
:1006D00049E0F15030404040E1F700C000001BB855
:1006E0005FEFE3ECF9E05150E040F040E1F700C08B
:1006F00000001BB83FEF43EC59E031504040504000
:10070000E1F700C000001BB8EFEFF3EC39E0E15077
:10071000F0403040E1F700C000001BB84FEF53EC51
:10072000E9E041505040E040E1F700C000001BB854
:10073000FFEF33EC49E0F15030404040E1F700C0BA
:1007400000001BB85FEFE3ECF9E05150E040F040EF
:10075000E1F700C000001BB83FEF43EC59E0315017
:1007600040405040E1F700C00000F5B8C8B9F8B803
:10077000EFEFF3EC39E0E150F0403040E1F700C03A
:100780000000E5B8C8B9F8B84FEF53ECE9E04150C4
:100790005040E040E1F700C0000015B9FFEF33EC36
:1007A00049E0F15030404040E1F700C00000D5B9C9
:1007B0005FEFE3ECF9E05150E040F040E1F700C0BA
:1007C000000005B93FEF43EC59E031504040504044
:1007D000E1F700C00000C5B9EFEFF3EC39E0E150FC
:1007E000F0403040E1F700C00000FBB84FEF53ECA1
:1007F000E9E041505040E040E1F700C00000EBB8B4
:10080000FFEF33EC49E0F15030404040E1F700C0E9
:1008100000002BB95FEFE3ECF9E05150E040F0400D
:10082000E1F700C000009BB83FEF43EC59E03150C6
:1008300040405040E1F700C000001BB9EFEFF3EC7F
:1008400039E0E150F0403040E1F700C00000DBB992
:100850004FEF53ECE9E041505040E040E1F700C079
:1008600000000BB9FFEF33EC49E0F150304040405D
:10087000E1F700C00000CBB95FEFE3ECF9E05150C5
:10088000E040F040E1F700C00000019709F0BDCD65
:100890002FEF33EC49E0215030404040E1F700C0F9
:1008A000000044E0A42EB12C0E944B00E8E0F1E0EF
:1008B00034E0C32E31E0D32E829188B91BB81BB827
:1008C00015B815B81BB85FEF83EC99E05150804024
:1008D0009040E1F700C000001BB91BB82FEF33ECCC
:1008E00049E0215030404040E1F700C00000FBB833
:1008F00015B85FEF83EC99E0515080409040E1F7EC
:1009000000C0000015B915B82FEF33EC49E02150B5
:1009100030404040E1F700C00000F5B818B85FEF84
:1009200083EC99E0515080409040E1F700C0000016
:10093000E8B818B82FEF33EC49E021503040404080
:10094000E1F700C00000C8B918B85FEF83EC99E088
:10095000515080409040E1F700C00000C8B915B880
:100960002FEF33EC49E0215030404040E1F700C028
:100970000000C5B915B85FEF83EC99E05150804095
:100980009040E1F700C0000095B81BB82FEF33ECA2
:1009900049E0215030404040E1F700C00000CBB9B1
:1009A0001BB85FEF83EC99E0515080409040E1F735
:1009B00000C000000BB91BB82FEF33EC49E0215009
:1009C00030404040E1F700C00000DBB9CE16DF0642
:1009D00009F072CF51E0A51AB10809F065CF0E9465
:1009E0004B000E944B0025E0A22EB12C1BB81BB877
:1009F0001BB81BB81BB81BB81BB81BB8C8B9D8B9F3
:100A00008FEF94E3ECE081509040E040E1F700C0CC
:100A100000000E944B001BB81BB81BB81BB815B8D0
:100A200015B815B815B8D8B908B9FFEF24E33CE0FC
:100A3000F15020403040E1F700C000000E944B0020
:100A400015B815B815B815B815B815B818B818B838
:100A500018B9D8B94FEF54E38CE041505040804072
:100A6000E1F700C000000E944B001BB81BB81BB888
:100A70001BB815B815B815B815B818B9D8B99FEF7F
:100A8000E4E3FCE09150E040F040E1F700C00000FA
:100A90000E944B001BB81BB81BB81BB81BB81BB877
:100AA0001BB81BB818B9D8B92FEF34E34CE021506C
:100AB00030404040E1F700C000000E944B001BB8EE
:100AC0001BB81BB81BB815B815B815B815B8D8B9E8
:100AD00008B95FEF84E39CE0515080409040E1F71B
:100AE00000C000000E944B0015B815B815B815B825
:100AF00015B815B818B818B808B9C8B9EFEFF4E3C5
:100B00002CE0E150F0402040E1F700C000000E94DE
:100B10004B001BB81BB81BB81BB815B815B815B8D7
:100B200015B808B9C8B93FEF44E35CE03150404024
:100B30005040E1F700C000000E944B0081E0A81A7D
:100B4000B10809F053CF1BB81BB81BB81BB81BB8B2
:100B50001BB81BB81BB888B878B89FEFE4E3FCE07B
:100B60009150E040F040E1F700C000000E944B00CF
:100B70000E944B0096E0A92EB12CF601838188B922
:100B80000E9456001BB81BB815B818B8FFEF23EC2D
:100B900039E0F15020403040E1F700C000000E94F1
:100BA00056001BB81BB815B815B84FEF53EC89E0C9
:100BB000415050408040E1F700C000000E945600C4
:100BC0001BB81BB815B815B89FEFE3ECF9E09150CE
:100BD000E040F040E1F700C000000E9456001BB862
:100BE0001BB815B815B82FEF33EC49E02150304051
:100BF0004040E1F700C000000E9456001BB81BB83F
:100C000015B815B85FEF83EC99E0515080409040E3
:100C1000E1F700C000000E9456001BB81BB815B8D1
:100C200018B8EFEFF3EC29E0E150F0402040E1F795
:100C300000C0000031E0A31AB10809F09ECF41E0E6
:100C4000C41AD10850E0C51651E0D50609F092CF7C
:100C50000E9456001BB81BB815B818B88FEF93EC5C
:100C6000E9E081509040E040E1F700C000000E94C0
:100C700051008EE1C82ED12C0E944B00FFEF23ECD7
:100C800039E0F15020403040E1F700C000000E9400
:100C900051004FEF52E587E0415050408040E1F76E
:100CA00000C0000091E0C91AD10831F70E944B0042
:100CB000EFEFF3ED20E3E150F0402040E1F700C01A
:080CC000000015CAF894FFCFF3
:100CC800000000000102040800000000000000000D
:100CD800000000000000000001020408102040800D
:080CE8000102040810200810AD
:00000001FF
