:100000000C943C000C9459000C9459000C94590029
:100010000C9459000C9459000C9459000C945900FC
:100020000C9459000C9459000C9459000C945900EC
:100030000C9459000C9459000C9459000C945900DC
:100040000C9459000C9459000C9459000C945900CC
:100050000C9459000C9459000C9459000C945900BC
:100060000C9459000C945900E701E901EB01ED01F2
:10007000EF01F101F301F60111241FBECFEFD8E02B
:10008000DEBFCDBF11E0A0E0B1E0E0EEF9E002C0DC
:1000900005900D92A833B107D9F721E0A8E3B1E0AC
:1000A00001C01D92AF33B207E1F70E94F9010C9431
:1000B000EE040C940000589A2FEF87EA91E6215045
:1000C00080409040E1F700C00000089581E091E099
:1000D0009F938F930E9410020F900F90499B02C034
:1000E00059980895599A2FEF87EA91E62150804058
:1000F0009040E1F700C0000008958BE091E09F93ED
:100100008F930E9410020F900F904A9B02C05A9842
:1001100008955A9A2FEF87EA91E621508040904047
:10012000E1F700C00000089587E191E09F938F936D
:100130000E9410020F900F90489B02C0589808959B
:100140000C945B00489B02C0589808950C945B0087
:100150004C9B02C05C9808955C9A2FEF87EA91E669
:10016000215080409040E1F700C0000008954B9B73
:1001700002C05B9808955B9A2FEF87EA91E62150C1
:1001800080409040E1F700C00000089583E291E0D4
:100190009F938F930E9410020F900F90489B02C074
:1001A000589808950C945B008DE291E09F938F9393
:1001B0000E9410020F900F90489B02C0589808951B
:1001C0000C945B000895089580910001811125C071
:1001D000189BFECF1899FECF2FEF89E698E12150AA
:1001E00080409040E1F700C00000189B05C01899BE
:1001F000FECF0E94A200E8CF0E9494001B9983B119
:10020000189BE2CF2FEF89E698E121508040904083
:10021000E1F700C0000083B1D7CF0895CF93C1E0CC
:10022000809100018823F9F0189B0AC01899FECF2D
:10023000CC2321F00E94D400C0E002C00E94C6007E
:1002400019990E9466001A990E947D001B9B04C0A8
:100250001B99FECF0E94B7001C9BE2CF1C99FECFDA
:100260000E94A800DDCFCF91089584E098B198272F
:1002700098B92FEF31EE44E0215030404040E1F793
:1002800000C0000098B1982798B99FEF21EE34E0A4
:10029000915020403040E1F700C0000098B198270D
:1002A00098B94FEF91EE24E0415090402040E1F7A3
:1002B00000C0000098B1982798B93AEA44ED9CE153
:1002C00021E03150404090402040D9F70000CECF8F
:1002D00084E098B1982798B92FEF31EE94E021503F
:1002E00030409040E1F700C0000098B1982798B9DD
:1002F0002FEF31EE94E0215030409040E1F700C004
:10030000000098B1982798B92FEF31EE94E0215072
:1003100030409040E1F700C0000098B1982798B9AC
:100320002FEF37EA91E6215030409040E1F700C0CE
:100330000000CFCF94E088B1892788B92FEF39E644
:1003400088E1215030408040E1F700C00000F3CF49
:1003500094E088B1892788B92AEA34ED4CE181E03C
:100360002150304040408040D9F70000F2CF94E067
:1003700088B1892788B92AEA36EE46E981E021501A
:10038000304040408040D9F70000F2CF94E088B17F
:10039000892788B92FEF33ED80E32150304080402A
:1003A000E1F700C00000F3CF429A08954298089503
:1003B00080913801082E000C990BAA0BBB0BFC0195
:1003C00088309105E0F7EC5CFF4F0C940A020E9424
:1003D00035010E9468010E949A010E94A8010E94B2
:1003E000B7010E94C6010E94D401E2CF0E94D6014B
:1003F000DFCF84B1807E84B98FE18AB9809100011A
:10040000882329F08130E1F70E940E01F7CF0E9486
:10041000E400F4CFEE0FFF1F0590F491E02D099456
:10042000A0E0B0E0E6E1F2E00C94C704AE014B5F5F
:100430005F4FFA0161917191AF0180913B01909101
:100440003C010E942602E2E00C94E304ABE0B0E041
:10045000ECE2F2E00C94B7046C017B018A01FC0130
:1004600017821682838181FFCCC1CE0101963C01A7
:10047000F6019381F70193FD859193FF81917F01AF
:10048000882309F4BAC1853239F493FD859193FF2D
:1004900081917F01853229F4B60190E00E941D040C
:1004A000E7CF912C212C312CFFE1F315D8F08B32C2
:1004B00079F038F4803279F08332A1F4232D206171
:1004C0001DC08D3261F0803369F4232D216016C088
:1004D000832D8260382EE32DE4603E2E2AC0F32D5A
:1004E000F8601DC037FC2DC020ED280F2A3040F0E9
:1004F0008E32B9F436FC81C1232D2064322E19C00E
:1005000036FE06C08AE0989E200D1124922E11C05E
:10051000EAE02E9E200D1124222EF32DF0623F2EB4
:1005200008C08C3621F4832D8068382E02C08836AE
:1005300041F4F70193FD859193FF81917F01811132
:10054000B3CF982F9F7D9554933028F40C5F1F4FA5
:100550009FE399830DC0833631F0833771F0833583
:1005600009F059C021C0F801808189830E5F1F4FB7
:1005700088248394912C530113C02801F2E04F0E7C
:10058000511CF801A080B18036FE03C0692D70E0D7
:1005900002C06FEF7FEFC5010E9412044C0182017F
:1005A000F32DFF773F2E16C0280122E0420E511C8A
:1005B000F801A080B18036FE03C0692D70E002C052
:1005C0006FEF7FEFC5010E9407044C01F32DF06827
:1005D0003F2E820133FC1BC0822D90E088169906C5
:1005E000B0F4B60180E290E00E941D042A94F4CF9A
:1005F000F50137FC859137FE81915F01B60190E0EE
:100600000E941D0421102A9421E0821A910881146D
:10061000910471F7E8C0843611F0893641F5F8018C
:1006200037FE07C060817181828193810C5F1F4F0B
:1006300008C060817181072E000C880B990B0E5F3A
:100640001F4FF32DFF763F2E97FF09C090958095A1
:10065000709561957F4F8F4F9F4FF0683F2E2AE036
:1006600030E0A3010E945904882E861845C08537C2
:1006700031F4232D2F7EB22E2AE030E025C0932DB9
:10068000997FB92E8F36C1F018F4883579F0B5C04E
:10069000803719F0883721F0B0C0E92FE061BE2E15
:1006A000B4FE0DC0FB2DF460BF2E09C034FE0AC09D
:1006B000292F2660B22E06C028E030E005C020E1D8
:1006C00030E002C020E132E0F801B7FE07C06081EF
:1006D0007181828193810C5F1F4F06C0608171819F
:1006E00080E090E00E5F1F4FA3010E945904882E06
:1006F0008618FB2DFF773F2E36FE0DC0232D2E7F53
:10070000A22E891458F434FE0BC032FC09C0832D8C
:100710008E7EA82E05C0B82CA32C03C0B82C01C017
:10072000B92CA4FE0FC0FE01E80DF11D80818033BD
:1007300021F49A2D997EA92E09C0A2FE06C0B39479
:10074000B39404C08A2D867809F0B394A3FC11C039
:10075000A0FE06C0B21488F4280C922C9B180EC080
:10076000B21460F4B60180E290E00E941D04B394DC
:10077000F7CFB21418F42B1802C0982C212CA4FE29
:1007800010C0B60180E390E00E941D04A2FE17C0D5
:10079000A1FC03C088E790E002C088E590E0B601C4
:1007A0000CC08A2D867859F0A1FE02C08BE201C0F0
:1007B00080E2A7FC8DE2B60190E00E941D0489143E
:1007C00038F4B60180E390E00E941D049A94F7CFBC
:1007D0008A94F301E80DF11D8081B60190E00E943A
:1007E0001D048110F5CF222009F442CEB60180E22B
:1007F00090E00E941D042A94F6CFF601868197812D
:1008000002C08FEF9FEF2B96E2E10C94D304FC0122
:100810000590615070400110D8F7809590958E0F2B
:100820009F1F0895FC016150704001900110D8F79E
:10083000809590958E0F9F1F08950F931F93CF93D0
:10084000DF93FB01238121FD03C08FEF9FEF2CC0BD
:1008500022FF16C0468157812481358142175307F4
:1008600044F4A081B1819D012F5F3F4F31832083EC
:100870008C93268137812F5F3F4F3783268314C0A7
:100880008B01EC01FB010084F185E02D0995892B9A
:10089000E1F6D80116968D919C91179701961796BF
:1008A0009C938E931697CE01DF91CF911F910F915C
:1008B0000895FA01AA27283051F1203181F1E894F6
:1008C0006F936E7F6E5F7F4F8F4F9F4FAF4FB1E043
:1008D0003ED0B4E03CD0670F781F891F9A1FA11D3E
:1008E000680F791F8A1F911DA11D6A0F711D811D3F
:1008F000911DA11D20D009F468943F912AE0269F04
:1009000011243019305D3193DEF6CF010895462F62
:100910004770405D4193B3E00FD0C9F7F6CF462F43
:100920004F70405D4A3318F0495D31FD40524193AC
:1009300002D0A9F7EACFB4E0A69597958795779569
:100940006795BA95C9F700976105710508959B01F0
:10095000AC010A2E06945795479537952795BA9579
:10096000C9F7620F731F841F951FA01D08952F9252
:100970003F924F925F926F927F928F929F92AF922F
:10098000BF92CF92DF92EF92FF920F931F93CF937C
:10099000DF93CDB7DEB7CA1BDB0B0FB6F894DEBF13
:1009A0000FBECDBF09942A88398848885F846E8439
:1009B0007D848C849B84AA84B984C884DF80EE8083
:1009C000FD800C811B81AA81B981CE0FD11D0FB68C
:1009D000F894DEBF0FBECDBFED010895F894FFCFB0
:1009E00001766F6C756D655F757000766F6C756DF7
:1009F000655F646F776E00616E737765725F6361C8
:100A00006C6C00706C61795F736F6E6700706175FC
:080A100073655F736F6E6700F0
:00000001FF
