:100000000C9434000C943E000C943E000C943E0082
:100010000C943E000C943E000C943E000C943E0068
:100020000C943E000C943E000C943E000C943E0058
:100030000C943E000C943E000C943E000C943E0048
:100040000C943E000C943E000C943E000C943E0038
:100050000C943E000C943E000C943E000C943E0028
:100060000C943E000C943E0011241FBECFEFD8E04C
:10007000DEBFCDBF0E9440000C9470000C940000C5
:100080008FE084B915B898E024E032E041E08FEFCA
:1000900095B9EFEFFCE73197F1F700C0000025B903
:1000A000EFEFFCE73197F1F700C0000035B9EFEF53
:1000B000FCE73197F1F700C0000045B9EFEFFCE72E
:1000C0003197F1F700C00000815011F7FFEF5BE7B7
:1000D00062E9F15050406040E1F700C00000D7CF26
:0400E000F894FFCFC2
:00000001FF
