:100000000C9434000C9449000C9449000C94490061
:100010000C9449000C9449000C9449000C9449003C
:100020000C9449000C9449000C9449000C9449002C
:100030000C9449000C9449000C9449000C9449001C
:100040000C9449000C9449000C9449000C9449000C
:100050000C9449000C9449000C9449000C944900FC
:100060000C9449000C94490011241FBECFEFD8E036
:10007000DEBFCDBF11E0A0E0B1E0E4ECF0E002C0F3
:1000800005900D92A031B107D9F70E944B000C9456
:1000900060000C9400008FE78AB91BB8E0E0F1E043
:1000A00081918BB92FEF87EA91E6215080409040F3
:1000B000E1F700C0000021E0EF30F20789F7EECF52
:0400C000F894FFCFE2
:1000C4003F065B4F666D7D077F6F777C395E797184
:00000001FF
