:100000000C943A000C9457000C9457000C94570031
:100010000C9457000C9457000C9457000C94570004
:100020000C9457000C9457000C9457000C945700F4
:100030000C9457000C9457000C9457000C945700E4
:100040000C9457000C9457000C9457000C945700D4
:100050000C9457000C9457000C9457000C945700C4
:100060000C9457000C9457006364696E6F7073753D
:1000700078585B0011241FBECFEFD8E0DEBFCDBFA4
:1000800016E0A0E0B1E0E2E9F9E102C005900D92CE
:10009000AA33B107D9F726E0AAE3B6E001C01D9262
:1000A000A434B207E1F70E9479040C94C70C0C94B5
:1000B00000009091C00095FFFCCF8093C60008958A
:1000C0008091C00087FFFCCF8091C60090E008952A
:1000D00026E02093C2001092C0009093C500809348
:1000E000C40088E18093C10008950F931F93CF93BC
:1000F000DF9300D01F92CDB7DEB784E495E00E9475
:100100005A0584E495E00E945A0586E091E09F93A9
:100110008F930E944405CE0103969F938F930CE327
:1001200011E01F930F930E948A050F900F900F907C
:100130000F900F900F908B81813321F0823309F45F
:1001400069C0E4C08FE391E00E945A05CE01029697
:100150009F938F931F930F930E948A058A810F901C
:100160000F900F900F90813359F588E991E00E942C
:100170005A05CE0101969F938F931F930F930E9470
:100180008A0589810F900F900F900F90823391F024
:1001900038F4803369F0813309F0ABC02198A6C0F0
:1001A000843361F048F0853309F0A3C025989EC0E0
:1001B00020989CC022989AC0239898C0249896C0F2
:1001C000823309F0A7C088E991E00E945A05CE0168
:1001D00001969F938F931F930F930E948A058981A5
:1001E0000F900F900F900F90823309F476C038F47F
:1001F000803371F0813309F049C0219A77C084338C
:1002000009F46FC008F46BC0853309F46CC03EC0BC
:10021000209A6CC083E392E00E945A05CE010296B8
:100220009F938F931F930F930E948A058A810F904B
:100230000F900F900F90813371F58BE892E00E9440
:100240005A05CE0101969F938F931F930F930E949F
:100250008A0589810F900F900F900F90843381F061
:1002600030F4823359F0833389F453983FC0863396
:1002700059F040F0873351F4579838C0529836C03F
:10028000549834C0559832C0569830C01F928F93FE
:1002900080E092E032C08233E9F58BE892E00E9480
:1002A0005A05CE0101969F938F931F930F930E943F
:1002B0008A0589810F900F900F900F90843389F0F9
:1002C00028F4823351F0833351F013C0863369F040
:1002D00050F0873371F4279A09C0229A07C0239AF5
:1002E00005C0249A03C0259A01C0269A84EB91E0A8
:1002F0000FC01F928F938CEC91E09F938F930E947D
:1003000044050F900F900F900F9004C087EA92E081
:100310000E945A050F900F900F90DF91CF911F917F
:100320000F9108950F931F93CF93DF9300D01F92E7
:10033000CDB7DEB784E495E00E945A0584E495E0E9
:100340000E945A0586E091E09F938F930E94440596
:10035000CE0103969F938F930CE311E01F930F93AD
:100360000E948A050F900F900F900F900F900F90A2
:100370008B81813321F0823309F46DC0E7C082ECB8
:1003800092E00E945A05CE0102969F938F931F938D
:100390000F930E948A058A810F900F900F900F9003
:1003A000813359F588E991E00E945A05CE01019602
:1003B0009F938F931F930F930E948A0589810F90BB
:1003C0000F900F900F90823391F038F4803369F0E2
:1003D000813309F0AEC02998A9C0843361F048F098
:1003E000853309F0A6C02D98A1C028989FC02A98EF
:1003F0009DC02B989BC02C9899C0823309F0AAC04D
:1004000088E991E00E945A05CE0101969F938F934F
:100410001F930F930E948A0589810F900F900F9070
:100420000F90823391F038F4803369F0813309F012
:100430004EC0299A7BC0843361F048F0853309F0BF
:1004400046C02D9A73C0289A71C02A9A6FC02B9A01
:100450006DC02C9A6BC08EE093E00E945A05CE01CD
:1004600002969F938F931F930F930E948A058A8110
:100470000F900F900F900F90813371F58BE892E001
:100480000E945A05CE0101969F938F931F930F935D
:100490000E948A0589810F900F900F900F908433EE
:1004A00081F030F4823359F0833389F45B983EC095
:1004B000863359F040F0873351F45F9837C05A982B
:1004C00035C05C9833C05D9831C05E982FC01F92D4
:1004D0008F9380E092E031C08233E1F58BE892E0C7
:1004E0000E945A05CE0101969F938F931F930F93FD
:1004F0000E948A0589810F900F900F900F9084338E
:1005000081F030F4823359F0833399F45B9A0EC052
:10051000863359F040F0873361F45F9A07C05A9AE6
:1005200005C05C9A03C05D9A01C05E9A84EB91E0BD
:100530000FC01F928F938CEC91E09F938F930E943A
:1005400044050F900F900F900F9004C087EA92E03F
:100550000E945A050F900F900F90DF91CF911F913D
:100560000F9108950F931F93CF93DF9300D01F92A5
:10057000CDB7DEB784E495E00E945A0584E495E0A7
:100580000E945A0584E495E00E945A0586E091E0B5
:100590009F938F930E944405CE0103969F938F9360
:1005A0000CE311E01F930F930E948A050F900F90A8
:1005B0000F900F900F900F908B81813321F0823339
:1005C00009F455C0B1C088E991E00E945A05CE01F6
:1005D00002969F938F931F930F930E948A058A819F
:1005E0000F900F900F900F908233E1F028F480333A
:1005F00049F0813379F036C0843321F1D8F0853366
:1006000049F130C0189B03C089E593E08FC089E6AB
:1006100093E08CC0199B03C088E793E087C088E80B
:1006200093E084C01A9B03C087E993E07FC087EA08
:1006300093E07CC01B9B03C086EB93E077C086EC05
:1006400093E074C01C9B03C085ED93E06FC085EE02
:1006500093E06CC01D9B03C084EF93E067C084E00F
:1006600094E064C01F928F938CEC91E054C08BE8AF
:1006700092E00E945A05CE0101969F938F931F939B
:100680000F930E948A050F900F900F900F90898111
:100690008433E1F028F4823349F0833379F036C0B3
:1006A000863321F1D8F0873349F130C04A9B03C02B
:1006B00083E194E03BC083E294E038C04B9B03C0ED
:1006C00082E394E033C082E494E030C04C9B03C0EA
:1006D00081E594E02BC081E694E028C04D9B03C0E7
:1006E00080E794E023C080E894E020C04E9B03C0E4
:1006F0008FE894E01BC08FE994E018C04F9B03C0C3
:100700008EEA94E013C08EEB94E010C08A811F92B1
:100710008F9380E092E09F938F930E9444050F9007
:100720000F900F900F9004C087EA92E00E945A0544
:100730000F900F900F90DF91CF911F910F9108951F
:1007400080E480937C0081E080937E0082E8809347
:100750007A00089581E480937C0081E080937E009C
:1007600082E880937A00089582E480937C0081E09F
:1007700080937E0082E880937A00089583E48093DA
:100780007C0081E080937E0082E880937A00089567
:1007900084E480937C0081E080937E0082E88093F3
:1007A0007A00089585E480937C0081E080937E0048
:1007B00082E880937A0008950F931F93CF93DF937D
:1007C0001F92CDB7DEB78DEC94E00E945A05CE01A2
:1007D00001969F938F938CE391E09F938F930E9458
:1007E0008A0589810F900F900F900F90823369F1E5
:1007F00068F48033C9F0813309F069C00E94AA030C
:1008000080917A00806480937A001AC08433A9F1C1
:1008100040F1853309F05BC00E94D20380917A00D9
:10082000806480937A0035C00E94A00380917A0092
:10083000806480937A0080917A0086FDFCCF2DC081
:1008400080917A0086FDFCCF28C00E94B40380917D
:100850007A00806480937A0080917A0086FDFCCFD4
:100860001CC00E94BE0380917A00806480937A004D
:1008700080917A0086FDFCCF10C00E94C803809151
:100880007A00806480937A0080917A0086FDFCCFA4
:1008900004C080917A0086FDFCCF00917800109111
:1008A000790084E495E00E945A051F930F9382EF2C
:1008B00094E09F938F930E9444052FEF81EE94E084
:1008C000215080409040E1F700C0000008C01F9216
:1008D0008F938EEF94E09F938F930E9444050F9027
:1008E0000F900F900F900F90DF91CF911F910F916C
:1008F0000895CF93DF931F92CDB7DEB787E690E0E0
:100900000E94680060E070E089E590E00E94F904D0
:1009100090933D0680933C0660E670E080E090E0B6
:100920000E94F90490933B0680933A0682E295E098
:100930000E945A05CE0101966C010CE311E08CE295
:10094000E82E86E0F82E8FE295E00E945A0586E4B4
:1009500095E00E945A0582E695E00E945A058DE7CF
:1009600095E00E945A05DF92CF921F930F930E9449
:100970008A0589810F900F900F900F90823389F034
:1009800038F48133D1F40E94750087E995E00DC0F9
:10099000833371F0843389F40E94DC0387E096E0AE
:1009A00004C00E9492018AEB95E00E945A050FC094
:1009B0000E94B20281EE95E0F8CF1F928F93FF92D2
:1009C000EF920E9444050F900F900F900F9084E4D7
:1009D00095E00E945A059FEF29E688E1915020405A
:1009E0008040E1F700C0000084E495E00E945A05D1
:1009F000AACF0F931F93CF93DF93009731F4611524
:100A0000710519F480E090E03AC08B01EC016EE0D2
:100A100070E081E090E00E942E0AFC01892B91F3A6
:100A200080E883830115110571F01387028781E83F
:100A3000838380913A0690913B06892B21F4F093B1
:100A40003B06E0933A062097C9F0D187C08783819F
:100A50008260838380913C0690913D06892B71F4DE
:100A6000F0933D06E0933C0680913E0690913F0650
:100A7000892B21F4F0933F06E0933E06CF01DF91EE
:100A8000CF911F910F910895A0E0B0E0EAE4F5E066
:100A90000C94A00CAE014B5F5F4FFA016191719114
:100AA000AF0180913C0690913D060E94A005E2E0D6
:100AB0000C94BC0C0F931F93CF93DF93E0913C06F3
:100AC000F0913D06238121FF1BC08C01D0E0C0E0E6
:100AD000F80181918F0160913C0670913D06DB0128
:100AE0001896ED91FC911997882331F00995892B7F
:100AF00079F3DFEFCFEFECCF8AE00995892B19F07E
:100B00008FEF9FEF02C08D2F9C2FDF91CF911F9110
:100B10000F910895A0E0B0E0E0E9F5E00C94A00C9E
:100B2000AE014B5F5F4FFA0161917191AF0180910E
:100B30003A0690913B060E941D09E2E00C94BC0C21
:100B4000ABE0B0E0E6EAF5E00C94900C6C017B01C0
:100B50008A01FC0117821682838181FFCCC1CE01FC
:100B600001963C01F6019381F70193FD859193FF76
:100B700081917F01882309F4BAC1853239F493FD4C
:100B8000859193FF81917F01853229F4B60190E030
:100B90000E94DA0BE7CF912C212C312CFFE1F315C9
:100BA000D8F08B3279F038F4803279F08332A1F4C6
:100BB000232D20611DC08D3261F0803369F4232D17
:100BC000216016C0832D8260382EE32DE4603E2E16
:100BD0002AC0F32DF8601DC037FC2DC020ED280F72
:100BE0002A3040F08E32B9F436FC81C1232D2064C6
:100BF000322E19C036FE06C08AE0989E200D1124C0
:100C0000922E11C0EAE02E9E200D1124222EF32DEB
:100C1000F0623F2E08C08C3621F4832D8068382E78
:100C200002C0883641F4F70193FD859193FF8191CD
:100C30007F018111B3CF982F9F7D9554933028F475
:100C40000C5F1F4F9FE399830DC0833631F08337CC
:100C500071F0833509F059C021C0F8018081898382
:100C60000E5F1F4F88248394912C530113C02801D9
:100C7000F2E04F0E511CF801A080B18036FE03C097
:100C8000692D70E002C06FEF7FEFC5010E94910BEC
:100C90004C018201F32DFF773F2E16C0280122E080
:100CA000420E511CF801A080B18036FE03C0692DB0
:100CB00070E002C06FEF7FEFC5010E947F0B4C0117
:100CC000F32DF0683F2E820133FC1BC0822D90E093
:100CD00088169906B0F4B60180E290E00E94DA0B23
:100CE0002A94F4CFF50137FC859137FE81915F019D
:100CF000B60190E00E94DA0B21102A9421E0821ABA
:100D000091088114910471F7E8C0843611F0893696
:100D100041F5F80137FE07C06081718182819381BE
:100D20000C5F1F4F08C060817181072E000C880B7B
:100D3000990B0E5F1F4FF32DFF763F2E97FF09C0D3
:100D400090958095709561957F4F8F4F9F4FF0687C
:100D50003F2E2AE030E0A3010E942F0C882E861837
:100D600045C0853731F4232D2F7EB22E2AE030E0A6
:100D700025C0932D997FB92E8F36C1F018F4883590
:100D800079F0B5C0803719F0883721F0B0C0E92F6D
:100D9000E061BE2EB4FE0DC0FB2DF460BF2E09C075
:100DA00034FE0AC0292F2660B22E06C028E030E0AB
:100DB00005C020E130E002C020E132E0F801B7FEDA
:100DC00007C060817181828193810C5F1F4F06C0D3
:100DD0006081718180E090E00E5F1F4FA3010E944F
:100DE0002F0C882E8618FB2DFF773F2E36FE0DC068
:100DF000232D2E7FA22E891458F434FE0BC032FC12
:100E000009C0832D8E7EA82E05C0B82CA32C03C04C
:100E1000B82C01C0B92CA4FE0FC0FE01E80DF11DD5
:100E20008081803321F49A2D997EA92E09C0A2FEDB
:100E300006C0B394B39404C08A2D867809F0B394A5
:100E4000A3FC11C0A0FE06C0B21488F4280C922C9A
:100E50009B180EC0B21460F4B60180E290E00E94CC
:100E6000DA0BB394F7CFB21418F42B1802C0982CF5
:100E7000212CA4FE10C0B60180E390E00E94DA0BA2
:100E8000A2FE17C0A1FC03C088E790E002C088E57D
:100E900090E0B6010CC08A2D867859F0A1FE02C000
:100EA0008BE201C080E2A7FC8DE2B60190E00E94D7
:100EB000DA0B891438F4B60180E390E00E94DA0B73
:100EC0009A94F7CF8A94F301E80DF11D8081B60161
:100ED00090E00E94DA0B8110F5CF222009F442CE77
:100EE000B60180E290E00E94DA0B2A94F6CFF60178
:100EF0008681978102C08FEF9FEF2B96E2E10C94E1
:100F0000AC0C20FD09C0FC0123FD05C022FF02C07E
:100F10007383628351834083089544FD17C046FD67
:100F200017C0AB01BC01DA01FB01AA0FBB1FEE1F0A
:100F3000FF1F1094D1F74A0F5B1F6E1F7F1FCB015D
:100F4000BA01660F771F881F991F09C033E001C0DF
:100F500034E0660F771F881F991F3150D1F7620F59
:100F6000711D811D911D08950F931F93CF93DF93E2
:100F70008C01C8010E949C0BEC0197FD08C00E94E7
:100F80006B0B892BB1F7B801CE010E94160CCE0174
:100F9000DF91CF911F910F9108958F929F92AF9201
:100FA000BF92EF92FF920F931F93CF93DF938C0129
:100FB000D62F7A01B22E0E949C0B9C0133272B3234
:100FC000310531F02D32310561F48B2D8068B82E5A
:100FD000D15011F480E068C0C8010E949C0B97FDBD
:100FE000F9CFCB2DCD7F2B2D207309F58033F9F46C
:100FF000AA24AA94AD0E09F443C0C8010E949C0B18
:1010000097FD3EC09C012F7D33272835310549F4DB
:10101000C264D250A9F1C8010E949C0B97FF07C07F
:101020002FC0B6FE02C0C26001C0C261DA2D812CA1
:10103000912C540120ED280F283080F0C4FF04C00B
:10104000B8010E94160C19C02A3040F0C6FFF8CF34
:101050002F7D3FEE320F363098F727504C2FC501C9
:10106000B4010E948D074B015C01C260D15059F060
:10107000C8010E949C0B97FFDDCFC1FD04C0AACF21
:10108000812C912C5401C7FF08C0B094A094909477
:101090008094811C911CA11CB11C2C2FB501A401B2
:1010A000C7010E94810781E0DF91CF911F910F91CD
:1010B000FF90EF90BF90AF909F908F900895A0E227
:1010C000B0E0E5E6F8E00C94930C5C01962E7A0112
:1010D000F9018E010F5F1F4F680180E2D8011D9258
:1010E0008A95E9F7D50113968C9080E090E0612C09
:1010F000712C30E061E070E083FC259183FE21914A
:101100008F01522E211103C080E090E092C02E3555
:1011100011F4009751F1432F50E0481759073CF460
:101120002D3559F12D3219F4772009F103C07720BC
:1011300009F46AC0452D469546954695D601A40FFB
:10114000B11D452D47708B0102C0000F111F4A953C
:10115000E2F7A8015C91452B4C93651459F05614A5
:1011600010F45394E7CF5A94E5CF31E004C07724CC
:10117000739401C0712C0196BFCF772019F08E8136
:1011800080628E83311103C08824839417C0F601D6
:101190009E012F5D3F4F8081809581932E173F07E1
:1011A000D1F7F2CFE114F10429F0D7018C93F701C4
:1011B00031967F019A94812C9920F9F0C5010E9403
:1011C0009C0B97FD18C0FC01FF2723E0F595E795E0
:1011D0002A95E1F7EC0DFD1D208130E0AC01477050
:1011E000552702C0359527954A95E2F720FDDACFBD
:1011F000B5010E94160C811087CFE114F10411F0A3
:10120000D7011C92C80115C0422F469546954695B8
:10121000D601A40FB11D422F47708B0102C0000FF1
:10122000111F4A95E2F7A8015C91452B4C93622E61
:10123000A2CFA096EFE00C94AF0CA0E0B0E0E3E208
:10124000F9E00C94930C6C01EB015A01FC0117823C
:101250001682512CF601E380FE01E3FC8591E3FE4A
:101260008191182FEF01882309F4EEC090E00E94CD
:101270006B0B892B21F0C6010E94B407EBCF15320E
:1012800041F4FE01E3FC1591E3FE1191EF011532EB
:1012900081F4C6010E949C0B97FDD4C0412F50E001
:1012A0009C01332724173507A9F2B6010E94160CBA
:1012B000CBC01A3239F4E3FC1591E3FE1191EF0132
:1012C00001E001C000E0F12C20ED210F2A3080F474
:1012D00002606F2D70E080E090E040E20E948D0798
:1012E000F62EFE01E3FC1591E3FE1191EF01ECCF28
:1012F00001FF03C0F11003C0A7C0FF24FA94183601
:1013000019F01C3651F010C0FE01E3FC1591E3FE0C
:101310001191EF01183641F408600460FE01E3FC0E
:101320001591E3FE1191EF01112309F48DC0612F96
:1013300070E088E690E00E94740B892B09F484C069
:1013400000FD07C0F50180809180C50102965C0117
:1013500002C0812C912C1E3651F4F6014681578132
:1013600060E070E0202FC4010E94810773CF133624
:10137000A9F401FD02C0FF24F394C6010E949C0B56
:1013800097FD60C08114910429F0F4018083C401A9
:1013900001964C01FA94F110F0CF50C01B3559F46E
:1013A0009E01A4016F2DC6010E945F08EC01892BEC
:1013B00009F044C03EC0C6010E94B40797FD42C078
:1013C0001F3661F128F4143639F1193651F128C06D
:1013D000133771F0153701F123C08114910429F0FE
:1013E000F4016082C40101964C01FA94FF2071F06F
:1013F000C6010E949C0B3C0197FD08C00E946B0B2C
:10140000892B59F3B601C3010E94160C8114910473
:10141000A9F0F401108212C0006203C0006101C093
:101420000064202FA4016F2DC6010E94CD078111F9
:1014300005C0F6018381807329F406C000FD0ACF40
:10144000539408CF552019F0852D90E002C08FEFFE
:101450009FEFCDB7DEB7EFE00C94AF0C0F931F9367
:10146000CF93DF93869F8001879F100D969F100D6D
:101470001124C8010E944A0AEC01009729F0A80132
:1014800060E070E00E948A0BCE01DF91CF911F9146
:101490000F9108950F931F93CF93DF93823091059F
:1014A00010F482E090E0E0914206F091430620E0E3
:1014B00030E0A0E0B0E0309719F140815181028125
:1014C000138148175907C8F08417950769F41097D6
:1014D00031F012960C93129713961C9327C0009329
:1014E00042061093430622C02115310519F0421718
:1014F000530718F49A01BD01EF01DF01F801DBCFBA
:1015000021153105F9F0281B390B2430310580F401
:101510008A819B816115710521F0FB019383828390
:1015200004C09093430680934206FE01329644C065
:10153000FE01E20FF31F8193919322503109398309
:1015400028833AC02091400630914106232B41F474
:10155000209102013091030130934106209340060F
:1015600020910001309101012115310541F42DB781
:101570003EB74091040150910501241B350BE091C9
:101580004006F0914106E217F307A0F42E1B3F0B33
:101590002817390778F0AC014E5F5F4F24173507E5
:1015A00048F04E0F5F1F50934106409340068193D1
:1015B000919302C0E0E0F0E0CF01DF91CF911F9165
:1015C0000F910895CF93DF93009709F481C0FC0138
:1015D000329713821282A0914206B091430610976F
:1015E00081F420813181820F931F20914006309138
:1015F00041062817390751F5F0934106E09340065C
:1016000067C0ED0120E030E0CE17DF0740F44A81EB
:101610005B819E0141155105F1F0EA01F5CFD383BD
:10162000C28340815181840F951FC817D90759F48F
:1016300088819981840F951F0296918380838A8186
:101640009B81938382832115310529F4F09343060E
:10165000E09342063DC0E901FB83EA834991599139
:10166000C40FD51FEC17FD0761F480819181840FB1
:10167000951F0296E90199838883828193819B83D8
:101680008A83E0E0F0E012968D919C911397009789
:1016900019F0FD01DC01F7CF8D919C9111979D010F
:1016A0002E5F3F4F820F931F2091400630914106DD
:1016B0002817390769F4309729F4109243061092DD
:1016C000420602C013821282B0934106A0934006E4
:1016D000DF91CF91089591110C948D0C803219F007
:1016E00089508550C8F70895FC010590061621F031
:1016F0000020D9F7C00108953197CF010895FC016A
:101700000590615070400110D8F7809590958E0F2C
:101710009F1F0895DC0101C06D9341505040E0F7D8
:101720000895FC016150704001900110D8F7809538
:1017300090958E0F9F1F0895CF93DF93EC012B811F
:1017400020FF33C026FF0AC02F7B2B838E819F8111
:1017500001969F838E838A8190E029C022FF0FC06B
:10176000E881F9818081082E000C990B009719F40B
:1017700020622B831AC03196F983E8830EC0EA8574
:10178000FB85099597FF09C02B81019611F080E236
:1017900001C080E1822B8B8308C02E813F812F5FA7
:1017A0003F4F3F832E83992702C08FEF9FEFDF913A
:1017B000CF9108950F931F93CF93DF93FB01238164
:1017C00021FD03C08FEF9FEF2CC022FF16C0468182
:1017D0005781248135814217530744F4A081B18198
:1017E0009D012F5F3F4F318320838C93268137816A
:1017F0002F5F3F4F3783268314C08B01EC01FB0121
:101800000084F185E02D0995892BE1F6D801169623
:101810008D919C911797019617969C938E9316978E
:10182000CE01DF91CF911F910F910895FB0123818C
:1018300020FF12C026FD10C08F3F3FEF930761F0DD
:1018400082832F7D206423832681378121503109B3
:1018500037832683992708958FEF9FEF0895FA0124
:10186000AA27283051F1203181F1E8946F936E7FDF
:101870006E5F7F4F8F4F9F4FAF4FB1E03ED0B4E0D0
:101880003CD0670F781F891F9A1FA11D680F791F11
:101890008A1F911DA11D6A0F711D811D911DA11D22
:1018A00020D009F468943F912AE0269F1124301932
:1018B000305D3193DEF6CF010895462F4770405DCD
:1018C0004193B3E00FD0C9F7F6CF462F4F70405D7C
:1018D0004A3318F0495D31FD4052419302D0A9F7D7
:1018E000EACFB4E0A6959795879577956795BA95D1
:1018F000C9F700976105710508959B01AC010A2E97
:1019000006945795479537952795BA95C9F7620F6D
:10191000731F841F951FA01D089599278827089578
:101920002F923F924F925F926F927F928F929F92EF
:10193000AF92BF92CF92DF92EF92FF920F931F93DD
:10194000CF93DF93CDB7DEB7CA1BDB0B0FB6F8948E
:10195000DEBF0FBECDBF09942A88398848885F84CE
:101960006E847D848C849B84AA84B984C884DF803F
:10197000EE80FD800C811B81AA81B981CE0FD11D23
:101980000FB6F894DEBF0FBECDBFED010895F894F9
:02199000FFCF87
:10199200000044062000656E74657220746865203C
:1019A200504F5254206E616D65203A203120666F8F
:1019B2007220504F52544220616E64203220666F72
:1019C2007220504F525444200D0A200025630065B6
:1019D2006E746572207468652076616C7565206628
:1019E2006F7220636F6E66696775726174696F6E7C
:1019F20020696E707574206F72206F7574707574C3
:101A020020504F5254422E2E2E31206D65616E733E
:101A120020696E707574202E32206D65616E7320A0
:101A22006F75747075740D00656E746572207468DC
:101A3200652070696E206E756D6265722028302D8A
:101A420035290D0070696E20636F6E666967757265
:101A52006520636F6D706C6574650D00796F75201C
:101A620074797065202563202E2E70696E206E6F4A
:101A72007420636F6E66696775726520706C65614C
:101A820073652074727920616761696E2E0D0A0098
:101A9200796F752074797065202563202E2E706908
:101AA2006E206E6F7420636F6E6669677572652053
:101AB200706C656173652074727920616761696E0B
:101AC2000D0A00656E746572207468652076616C1B
:101AD200756520666F7220636F6E666967757261E5
:101AE20074696F6E20696E707574206F72206F75E5
:101AF2007470757420504F5254442E2E2E31206D26
:101B020065616E7320696E7075742E32206D656129
:101B12006E73206F75747075740D00656E746572E6
:101B2200207468652070696E206E756D6265722022
:101B320028322D37290D00796F7520646F6E277456
:101B4200207265616420636F6E646974696F6E20D0
:101B52000D00656E746572207468652076616C751F
:101B62006520666F7220636F6E6669677572617455
:101B7200696F6E20504F525442206F7574707574A5
:101B82002E2E2E31206D65616E73206C6F77202EA4
:101B920032206D65616E7320686967680D00656E3D
:101BA200746572207468652076616C756520666F55
:101BB2007220636F6E66696775726174696F6E20F9
:101BC2006F757470757420504F5254442E2E2E31FE
:101BD200206D65616E73206C6F772E32206D6561AA
:101BE2006E7320686967680D005042203020697367
:101BF200206F75747075740D005042203020697327
:101C020020696E7075740D00504220312069732076
:101C12006F75747075740D00504220312069732005
:101C2200696E7075740D0050422032206973206F06
:101C320075747075740D00504220322069732069EA
:101C42006E7075740D0050422033206973206F75D9
:101C5200747075740D005042203320697320696ED0
:101C62007075740D0050422034206973206F7574B2
:101C72007075740D005042203420697320696E70B3
:101C820075740D0050422035206973206F75747091
:101C920075740D005042203520697320696E70758D
:101CA200740D0050442032206973206F7574707572
:101CB200740D005044203220697320696E7075746F
:101CC2000D0050442033206973206F757470757451
:101CD2000D005044203320697320696E7075740DB5
:101CE2000050442034206973206F75747075740D30
:101CF200005044203420697320696E7075740D00A1
:101D020050442035206973206F75747075740D000E
:101D12005044203520697320696E7075740D00502F
:101D2200442036206973206F75747075740D0050ED
:101D320044203620697320696E7075740D0050441A
:101D42002037206973206F75747075740D005044CC
:101D5200203720697320696E7075740D00656E748A
:101D6200657220746865206368616E6E656C206FB1
:101D72007220504F525443206E6F2028302D352947
:101D82000D00526573756C742025640D0A00796F1D
:101D9200752074797065202563202E20746869731C
:101DA200206973206E6F7420646566696E65640DC8
:101DB2000A00696E697469616C697A65640D00462E
:101DC2006F722070696E4D6F646528292074797076
:101DD200652031200D00466F722064696769746165
:101DE2006C577269746528292074797065203220D5
:101DF2000D00466F72206469676974616C52656197
:101E020064282920747970652033200D00466F7292
:101E120020616E616C6F6752656164282920747954
:101E220070652034200D0070696E4D6F646528293D
:101E32002069732063616C6C6564207375636365EC
:101E4200737366756C6C79200D00646967697461DF
:101E52006C577269746528292069732063616C6C00
:101E62006564207375636365737366756C6C790D55
:101E7200006469676974616C52656164282920692C
:101E8200732063616C6C656420737563636573733F
:101E920066756C6C790D00616E616C6F675265617D
:101EA2006428292069732063616C6C6564207375F2
:101EB200636365737366756C6C790D007265636537
:0A1EC200697665642025630D0A00AF
:00000001FF
