:100000000C9434000C9449000C9449000C94490061
:100010000C9449000C9449000C9449000C9449003C
:100020000C9449000C9449000C9449000C9449002C
:100030000C9449000C9449000C9449000C9449001C
:100040000C9449000C9449000C9449000C9449000C
:100050000C9449000C9449000C9449000C944900FC
:100060000C9449000C94490011241FBECFEFD8E036
:10007000DEBFCDBF11E0A0E0B1E0E0E3FBE002C0F5
:1000800005900D92A832B107D9F70E946C050C9427
:1000900096050C9400008FEF8BB990E398B985B961
:1000A00008951BB8409A419A429A439A44984598B9
:1000B000289829982A982B982C982D9808959FEF86
:1000C0009BB988B1806388B995B90895CF93DF93C0
:1000D000CEE1D0E00E9451002FEF83EC99E0215057
:1000E00080409040E1F700C000000E944B002FEFDD
:1000F00082E597E0215080409040E1F700C0000089
:10010000219741F7DF91CF910895EF92FF920F93DE
:100110001F93CF93DF93C4E0D0E004E011E084E0CC
:10012000E82E81E0F82E0E94510060E071E0E4E0EA
:10013000F1E098B182918095892388B92FE739EA57
:1001400043E0215030404040E1F700C0000081E032
:10015000E030F80771F7E8E0F1E084E091E038B1D1
:10016000DC012D91CD01232B28B9BFE729EA33E02B
:10017000B15020403040E1F700C00000E817F90717
:1001800071F798B1DB018D91BD018095892388B904
:10019000BFE729EA33E0B15020403040E1F700C02A
:1001A00000000617170769F798B18291892B88B963
:1001B0004FE789EA93E0415080409040E1F700C06A
:1001C0000000EE16FF0681F7219709F0ACCFDF9112
:1001D000CF911F910F91FF90EF9008954F925F92F2
:1001E0006F927F928F929F92AF92BF92CF92DF9247
:1001F000EF92FF920F931F93CF93DF930E944B00D8
:10020000409A419A429A439A83E090E06CE0E62E4D
:1002100061E0F62E70E1872E71E0972EE4E16E2EFC
:10022000E1E07E2E6CE171E0F0E24F2EF1E05F2E16
:1002300004E211E0A8E0B1E0FD01CBB0D190D09490
:10024000DC20DBB82FEF31EE44E02150304040405D
:10025000E1F700C00000C1E0EC30FC0771F7ECE012
:10026000F1E0CBB0D190D094DC20DBB8DFEF21EE11
:1002700034E0D15020403040E1F700C000008E163D
:100280009F0679F7E0E1F1E0C5B0D190D094DC2091
:10029000D5B84FEFC1EED4E04150C040D040E1F7B7
:1002A00000C000006E167F0679F72C984498459898
:1002B0002FEF31EE44E0215030404040E1F700C0E4
:1002C00000002D9844984598CFEFD1EE24E0C1501E
:1002D000D0402040E1F700C00000E8E1F1E06F010C
:1002E000ABB0E601B9906E01BA28BBB8DFEF21EEE2
:1002F00034E0D15020403040E1F700C000006C15E0
:100300007D0571F75CE1C52E51E0D52EABB0E6015D
:10031000B9906E01BA28BBB8DFEF21EE34E0D150BE
:1003200020403040E1F700C000004C145D0471F73C
:1003300040E2C42E41E0D42EA5B0E601B9906E0192
:10034000BA28B5B8DFEF21EE34E0D150204030407C
:10035000E1F700C000000C151D0571F72C9A449AB6
:10036000459A4FEFC1EED4E04150C040D040E1F794
:1003700000C000002D9A449A459A2FEF31EE44E0D8
:10038000215030404040E1F700C000002C984498D4
:100390004598CFEFD1EE24E0C150D0402040E1F7A6
:1003A00000C000002D98449845983FEF41EEC4E00E
:1003B00031504040C040E1F700C0000030E1C32EA2
:1003C00031E0D32EA5B0E601B9906E01B094BA2009
:1003D000B5B8DFEF21EE34E0D15020403040E1F7F6
:1003E00000C000006C147D0469F72CE0C22E21E0EF
:1003F000D22EABB0E601B9906E01B094BA20BBB872
:10040000DFEF21EE34E0D15020403040E1F700C072
:1004100000008C149D0469F7CBB0DD90D094DC20F3
:10042000DBB84FEFC1EED4E04150C040D040E1F71F
:1004300000C00000EA16FB0679F72C9A449A459A08
:100440002FEF31EE44E0215030404040E1F700C052
:1004500000002D9A449A459ACFEFD1EE24E0C15086
:10046000D0402040E1F700C00000A0E2B1E0C5B0FC
:10047000DD90DC28D5B83FEF41EEC4E0315040407C
:10048000C040E1F700C000000A171B0781F7ACE18C
:10049000B1E0CBB0DD90DC28DBB8DFEF21EE34E05B
:1004A000D15020403040E1F700C000004A165B0602
:1004B00081F7BBB1A191AB2BABB94FEFC1EED4E04B
:1004C0004150C040D040E1F700C000006E177F07E8
:1004D00081F7019709F0AECEDF91CF911F910F9177
:1004E000FF90EF90DF90CF90BF90AF909F908F9054
:1004F0007F906F905F904F9008951F93CF93DF93FD
:1005000060E071E024E031E0FB0198B181918095D9
:10051000892388B92E173F07C1F785E090E048E0AE
:1005200051E0E4E0F1E0C0E0D1E0DF0138B12D912D
:10053000232B28B93FEF11EE24E03150104020402A
:10054000E1F700C0000038B129912095232328B994
:100550004A175B0759F7C4E0D1E0A8E0B1E038B131
:100560002E91232B28B93FEF11EE24E0315010409B
:100570002040E1F700C0000038B12A9120952323E4
:1005800028B9EA17FB0759F738B12191232B28B96D
:100590001FEF21EE34E0115020403040E1F700C061
:1005A00000004E175F0781F7E4E0F1E038B12291D7
:1005B0002095232328B9AFEF11EE24E0A15010407D
:1005C0002040E1F700C000006E177F0779F7019720
:1005D00009F0A7CFDF91CF911F910895CF93DF93BB
:1005E0000E945100CEE1D0E00E944B002FEF81EE3F
:1005F00094E0215080409040E1F700C000000E944C
:1006000051002FE789EA93E0215080409040E1F7C4
:1006100000C00000219741F7DF91CF910895CF935B
:10062000DF93C4E0D0E00E944B00E8E0F1E098B135
:100630008291892B88B95D985E9829982A98589854
:100640002FE78BE898E0215080409040E1F700C010
:100650000000589A5C982FE78BE898E02150804082
:100660009040E1F700C000005C9A28982FE78BE8E3
:1006700098E0215080409040E1F700C00000289AA7
:100680002C982FE78BE898E0215080409040E1F7CC
:1006900000C000002C9A45982FE78BE898E0215085
:1006A00080409040E1F700C00000459A45982FE750
:1006B0008BE898E0215080409040E1F700C00000B6
:1006C000449A45982FE78BE898E02150804090406D
:1006D000E1F700C00000449A2B982FE78BE898E0E0
:1006E000215080409040E1F700C000002B9A2F98E5
:1006F0002FE78BE898E0215080409040E1F700C060
:1007000000002F9A5B982FE78BE898E021508040FB
:100710009040E1F700C000005B9A5A982FE78BE801
:1007200098E0215080409040E1F700C000005A9AC4
:1007300059982FE78BE898E0215080409040E1F7EE
:1007400000C00000599A21E0E430F20709F06FCFB1
:10075000219709F068CFDF91CF9108956F927F9232
:100760008F929F92AF92BF92CF92DF92EF92FF92C1
:100770000F931F93CF93DF930E944B0035E0C32E5E
:10078000D12CC0E1D1E004E111E046E1842E41E04A
:10079000942E88E0E82E81E0F82E90E1692E91E019
:1007A000792EF7019BB18191809589238BB9CE1762
:1007B000DF07C1F7439A419A2FEF86E191E121507B
:1007C00080409040E1F700C000000E944B002CE008
:1007D000A22E21E0B22EF5019BB181918095892353
:1007E0008BB9CE17DF07C1F7E0E1F1E095B1819158
:1007F0008095892385B90E171F07C1F7419A429A40
:10080000EFEFF6E121E1E150F0402040E1F700C0D8
:1008100000000E944B00E0E1F1E095B181918095EC
:10082000892385B98E169F06C1F744984598409A4A
:10083000419A8FEF96E1E1E181509040E040E1F78D
:1008400000C000000E944B00ECE0F1E09BB1819100
:10085000809589238BB9CE17DF07C1F7E0E1F1E07E
:1008600095B181918095892385B90E171F07C1F72E
:10087000409A419AFFEF26E181E1F150204080400B
:10088000E1F700C000000E944B00E8E0F1E09BB1FE
:100890008191809589238BB9CE17DF07C1F7409AE4
:1008A000419A9FEFE6E1F1E19150E040F040E1F73D
:1008B00000C000000E944B00ECE0F1E09BB1819190
:1008C000809589238BB9CE17DF07C1F7E0E1F1E00E
:1008D00095B181918095892385B90E171F07C1F7BE
:1008E000419A429A2FEF86E191E121508040904059
:1008F000E1F700C000000E944B00E0E1F1E095B19B
:1009000081918095892385B98E169F06C1F74498F9
:100910004598429A439AEFEFF6E121E1E150F04029
:100920002040E1F700C000000E944B009BB1F501A0
:1009300081915F01809589238BB9CE17DF07B1F7CD
:10094000E0E1F1E095B181918095892385B90E1799
:100950001F07C1F7429A439AFFEF26E181E1F15068
:1009600020408040E1F700C000000E944B0091E071
:10097000C91AD10809F00DCF9BB1F70181917F0110
:10098000809589238BB96E167F06B1F7439A429AF8
:10099000FFEF26E181E1F15020408040E1F700C007
:1009A0000000DF91CF911F910F91FF90EF90DF90AA
:1009B000CF90BF90AF909F908F907F906F900C944E
:1009C0004B00EF92FF920F931F93CF93DF930E9400
:1009D0004B00C4E0D1E080E0E82E81E0F82E06E094
:1009E00010E08B8188B90E945F0058985D982A9822
:1009F00045982FEF84E694E0215080409040E1F745
:100A000000C000000E945F005C985D982A982B98B7
:100A10002FEF84E694E0215080409040E1F700C041
:100A200000000E945F005E985F98289829982FEF39
:100A300084E694E0215080409040E1F700C000003F
:100A40000E945F005B985E9829982C982FEF84E6AF
:100A500094E0215080409040E1F700C000000E94E7
:100A60005F005A985E9829982D982FEF84E694E0BD
:100A7000215080409040E1F700C000000E945F00DC
:100A800059985D982A9844982FEF84E694E0215075
:100A900080409040E1F700C000000150110909F0CA
:100AA000A0CF2197EC16FD0609F099CF0E945F00B8
:100AB00058985D982A9845982FEF84E694E0215045
:100AC00080409040E1F700C00000DF91CF911F917E
:100AD0000F91FF90EF9008958FEF8AB987B18F63E0
:100AE00087B984B18F6384B90E944B000E9466006D
:100AF0000E9451000E9485000E947D020E94EE002B
:100B00000E940F030E944B000E94AE030E94E1046A
:100B10000E94EE020E944B002FEF83E294EF2150DF
:100B200080409040E1F700C00000DECFF894FFCF96
:100B30000102040801020408010204081020408098
:100B40000102040810201020010204081020408037
:080B500001020408102010202E
:00000001FF
