:100000000C9434000C943E000C943E000C943E0082
:100010000C943E000C943E000C943E000C943E0068
:100020000C943E000C943E000C943E000C943E0058
:100030000C943E000C943E000C943E000C943E0048
:100040000C943E000C943E000C943E000C943E0038
:100050000C943E000C943E000C943E000C943E0028
:100060000C943E000C943E0011241FBECFEFD8E04C
:10007000DEBFCDBF0E9440000C94CF000C94000066
:100080008AB18FEF8AB91BB887B1836087B961E005
:1000900084E090E150E242E028E03EE118B868B91F
:1000A0008BB97FEFE3ECF9E07150E040F040E1F70D
:1000B00000C000001BB88BB97FEFE3ECF9E0715092
:1000C000E040F040E1F700C000001BB89BB97FEFB3
:1000D000E3ECF9E07150E040F040E1F700C00000CF
:1000E0001BB85BB97FEFE3ECF9E07150E040F04002
:1000F000E1F700C0000048B99BB97FEFE3ECF9E0FD
:100100007150E040F040E1F700C000009BB97FEF84
:10011000E3ECF9E07150E040F040E1F700C000008E
:100120008BB97FEFE3ECF9E07150E040F040E1F78C
:1001300000C000002BB97FEFE3ECF9E07150E04024
:10014000F040E1F700C000001BB818B87FEFE3EC07
:10015000F9E07150E040F040E1F700C000001BB84A
:100160002BB97FEFE3ECF9E07150E040F040E1F7AC
:1001700000C000001BB87FEFE3ECF9E07150E040F5
:10018000F040E1F700C000003BB97FEFE3ECF9E09D
:100190007150E040F040E1F700C000007FCFF894DC
:0201A000FFCF8F
:00000001FF
