:100000000C9434000C943E000C943E000C943E0082
:100010000C943E000C943E000C943E000C943E0068
:100020000C943E000C943E000C943E000C943E0058
:100030000C943E000C943E000C943E000C943E0048
:100040000C943E000C943E000C943E000C943E0038
:100050000C943E000C943E000C943E000C943E0028
:100060000C943E000C943E0011241FBECFEFD8E04C
:10007000DEBFCDBF0E9484000C9497000C9400005A
:100080008AB18C618AB98AB1806E8AB908954BB100
:1000900021E030E0F90102C0EE0FFF1F8A95E2F780
:1000A000CF01842B8BB98BB101C0220F6A95EAF77F
:1000B000209528232BB908959BB121E030E0A901B8
:1000C00001C0440F6A95EAF7492B4BB99BB101C0B7
:1000D000220F8A95EAF7209529232BB908959BB121
:1000E00021E030E001C0220F8A95EAF7209529230C
:1000F0002BB908959BB121E030E001C0220F8A9511
:10010000EAF7292B2BB908950E94400084E00E9451
:100110006F0087E00E946F002AEA36EE86E991E0E0
:100120002150304080409040D9F70000F5CFF8943E
:02013000FFCFFF
:00000001FF
