:100000000C9434000C9449000C9449000C94490061
:100010000C9449000C9449000C9449000C9449003C
:100020000C9449000C9449000C9449000C9449002C
:100030000C9449000C9449000C9449000C9449001C
:100040000C9449000C9449000C9449000C9449000C
:100050000C9449000C9449000C9449000C944900FC
:100060000C9449000C94490011241FBECFEFD8E036
:10007000DEBFCDBF11E0A0E0B1E0E6ECF0E002C0F1
:1000800005900D92A034B107D9F70E944B000C9453
:1000900061000C9400008FE38AB9E0E0F1E0819107
:1000A0008BB92FEF81EE94E0215080409040E1F732
:1000B00000C0000021E0E034F20789F780E090E022
:0600C0000895F894FFCF43
:1000C60000010302060705040C0D0F0E0A0B0908B2
:1000D60018191B1A1E1F1D1C1415171612131110A2
:1000E60030313332363735343C3D3F3E3A3B393892
:1000F60028292B2A2E2F2D2C242527262223212082
:00000001FF
