:100000000C943A000C9457000C9457000C94570031
:100010000C9457000C9457000C9457000C94570004
:100020000C9457000C9457000C9457000C945700F4
:100030000C9457000C9475000C9457000C945700C6
:100040000C9457000C9457000C9457000C945700D4
:100050000C9457000C9457000C9457000C945700C4
:100060000C9457000C9457006364696E6F7073753D
:1000700078585B0011241FBECFEFD8E0DEBFCDBFA4
:1000800012E0A0E0B1E0E2EBF6E102C005900D92D3
:10009000A234B107D9F722E0A2E4B2E001C01D9278
:1000A000A035B207E1F70E9478020C94570B0C942C
:1000B00000009091C00095FFFCCF8093C60008958A
:1000C0008091C00087FFFCCF8091C60090E008952A
:1000D00026E02093C2001092C0009093C500809348
:1000E000C40088E18093C10008951F920F920FB65B
:1000F0000F9211248F939F93AF93BF9380914202ED
:1001000090914302A0914402B09145020196A11D35
:10011000B11D8093420290934302A0934402B09396
:100120004502BF91AF919F918F910F900FBE0F909D
:100130001F9018951092800083E08093810081E0E9
:1001400080936F0008958F929F92AF92BF92CF924B
:10015000DF92EF92FF924B015C01109285001092AA
:100160008400F894C12CD12C760140E050E0BA0113
:100170008091840090918500A0E0B0E084179507FD
:10018000A607B70728F48FEFC81AD80AE80AF80AB2
:10019000409184005091850060E070E020918400DF
:1001A00030918500220F331F220F331FD701C60164
:1001B000E2E1880F991FAA1FBB1FEA95D1F7820FB2
:1001C000931FA11DB11D88159905AA05BB0580F2D5
:1001D0007894FF90EF90DF90CF90BF90AF909F907A
:1001E0008F9008958F929F92AF92BF92CF92DF929D
:1001F000EF92FF929B01AC01A8EEB3E00E946F0367
:100200004B015C011092850010928400F894C12C7F
:10021000D12C760140E050E0BA01809184009091A9
:100220008500A0E0B0E084179507A607B70728F47B
:100230008FEFC81AD80AE80AF80A40918400509152
:10024000850060E070E02091840030918500220FED
:10025000331F220F331FD701C601E2E1880F991F18
:10026000AA1FBB1FEA95D1F7820F931FA11DB11DD5
:1002700088159905AA05BB0580F27894FF90EF9048
:10028000DF90CF90BF90AF909F908F9008958F9206
:100290009F92AF92BF92CF92DF92EF92FF929B011B
:1002A000AC0160E472E48FE090E00E945F034B01D8
:1002B0005C011092850010928400F894C12CD12C1E
:1002C000760140E050E0BA01809184009091850071
:1002D000A0E0B0E084179507A607B70728F48FEFD2
:1002E000C81AD80AE80AF80A40918400509185009B
:1002F00060E070E02091840030918500220F331F70
:10030000220F331FD701C601E2E1880F991FAA1FF0
:10031000BB1FEA95D1F7820F931FA11DB11D881550
:100320009905AA05BB0580F27894FF90EF90DF90C5
:10033000CF90BF90AF909F908F9008958F929F9293
:10034000AF92BF92CF92DF92EF92FF920F931F93E3
:1003500010924202109243021092440210924502FF
:1003600010928500109284007894C0904202D09040
:100370004302E0904402F0904502209184003091C5
:10038000850042E1CC0CDD1CEE1CFF1C4A95D1F728
:10039000220F331F220F331F46015701820E931E77
:1003A000A11CB11C86169706A806B906F0F21F918B
:1003B0000F91FF90EF90DF90CF90BF90AF909F9004
:1003C0008F9008958F929F92AF92BF92CF92DF92BB
:1003D000EF92FF920F931F939B01AC01A8EEB3E045
:1003E0000E946F0310924202109243021092440244
:1003F0001092450210928500109284007894C0906B
:100400004202D0904302E0904402F09045022091D5
:1004100084003091850042E1CC0CDD1CEE1CFF1CF9
:100420004A95D1F7220F331F220F331F4601570180
:10043000820E931EA11CB11C86169706A806B9064B
:10044000F0F21F910F91FF90EF90DF90CF90BF904F
:10045000AF909F908F9008958F929F92AF92BF928E
:10046000CF92DF92EF92FF920F931F939B01AC010B
:1004700060E472E48FE090E00E945F031092420219
:10048000109243021092440210924502109285008D
:10049000109284007894C0904202D0904302E09081
:1004A0004402F0904502209184003091850042E1A1
:1004B000CC0CDD1CEE1CFF1C4A95D1F7220F331F1C
:1004C000220F331F46015701820E931EA11CB11C3F
:1004D00086169706A806B906F0F21F910F91FF90B5
:1004E000EF90DF90CF90BF90AF909F908F90089546
:1004F000CF93DF931F92CDB7DEB787E690E00E94DF
:1005000068000E949A0060E070E089E590E00E9437
:100510008903909349028093480260E670E080E08E
:1005200090E00E948903909347028093460286E000
:1005300091E00E94EA03109242021092430210924C
:100540004402109245021092850010928400789423
:100550001F928EE18F9382E191E09F938F930E948F
:10056000D4030F900F900F900F90CE0101961C01B5
:1005700082E2482E81E0582E1EE193E1692E92E03E
:10058000792E25ECE22E21E0F22E3FE0C32E32E060
:10059000D32E49ECA42E41E0B42E5EEE852E51E020
:1005A000952E3F922F925F924F920E941A0485E2FD
:1005B00091E00E94EA038EE391E00E94EA0387E55E
:1005C00091E00E94EA038FE691E00E94EA038CE842
:1005D00091E00E94EA0389EA91E00E94EA0389819E
:1005E0000F900F900F900F90833399F190F4813317
:1005F00019F1823309F056C01F921F939F928F9278
:100600000E94D4036EE170E080E090E00E94F2006E
:1006100051C08533C1F150F1863309F043C01F92B8
:100620001F93DF92CF920E94D4036EE170E080E0CE
:1006300090E00E942C023EC01F921F93BF92AF9287
:100640000E94D4036EE170E080E090E00E94A3007D
:1006500031C01F921F937F926F920E94D4036EE16C
:1006600070E080E090E00E94470124C01F921F9339
:10067000FF92EF920E94D4036EE170E080E090E080
:100680000E949E0117C01F921F938AEE91E09F93D4
:100690008F930E94D4036EE170E080E090E00E94AE
:1006A000E20108C01F928F938FE292E09F938F9395
:1006B0000E94D4030F900F900F900F9072CFDB0128
:1006C0008F939F930E946F03BF91AF91A29F800D64
:1006D000911DA39F900DB29F900D112408950E942B
:1006E0007A03A59F900DB49F900DA49F800D911D3E
:1006F00011240895A29FB001B39FC001A39F700D64
:10070000811D1124911DB29F700D811D1124911D19
:1007100008950F931F93CF93DF93009731F46115E2
:10072000710519F480E090E03AC08B01EC016EE0B5
:1007300070E081E090E00E94BE08FC01892B91F3FB
:1007400080E883830115110571F01387028781E822
:1007500083838091460290914702892B21F4F09384
:100760004702E09346022097C9F0D187C087838172
:10077000826083838091480290914902892B71F4B1
:10078000F0934902E093480280914A0290914B0213
:10079000892B21F4F0934B02E0934A02CF01DF91C1
:1007A000CF911F910F910895A0E0B0E0EAEDF3E042
:1007B0000C94300BAE014B5F5F4FFA016191719168
:1007C000AF0180914802909149020E943004E2E01A
:1007D0000C944C0B0F931F93CF93DF93E09148023F
:1007E000F0914902238121FF1BC08C01D0E0C0E0C1
:1007F000F80181918F016091480270914902DB01FB
:100800001896ED91FC911997882331F00995892B61
:1008100079F3DFEFCFEFECCF8AE00995892B19F060
:100820008FEF9FEF02C08D2F9C2FDF91CF911F91F3
:100830000F910895A0E0B0E0E0E2F4E00C94300BFA
:10084000AE014B5F5F4FFA0161917191AF018091F1
:100850004602909147020E94AD07E2E00C944C0BD7
:10086000ABE0B0E0E6E3F4E00C94200B6C017B011C
:100870008A01FC0117821682838181FFCCC1CE01DF
:1008800001963C01F6019381F70193FD859193FF59
:1008900081917F01882309F4BAC1853239F493FD2F
:1008A000859193FF81917F01853229F4B60190E013
:1008B0000E946A0AE7CF912C212C312CFFE1F3151D
:1008C000D8F08B3279F038F4803279F08332A1F4A9
:1008D000232D20611DC08D3261F0803369F4232DFA
:1008E000216016C0832D8260382EE32DE4603E2EF9
:1008F0002AC0F32DF8601DC037FC2DC020ED280F55
:100900002A3040F08E32B9F436FC81C1232D2064A8
:10091000322E19C036FE06C08AE0989E200D1124A2
:10092000922E11C0EAE02E9E200D1124222EF32DCE
:10093000F0623F2E08C08C3621F4832D8068382E5B
:1009400002C0883641F4F70193FD859193FF8191B0
:100950007F018111B3CF982F9F7D9554933028F458
:100960000C5F1F4F9FE399830DC0833631F08337AF
:1009700071F0833509F059C021C0F8018081898365
:100980000E5F1F4F88248394912C530113C02801BC
:10099000F2E04F0E511CF801A080B18036FE03C07A
:1009A000692D70E002C06FEF7FEFC5010E94210A40
:1009B0004C018201F32DFF773F2E16C0280122E063
:1009C000420E511CF801A080B18036FE03C0692D93
:1009D00070E002C06FEF7FEFC5010E940F0A4C016B
:1009E000F32DF0683F2E820133FC1BC0822D90E076
:1009F00088169906B0F4B60180E290E00E946A0A77
:100A00002A94F4CFF50137FC859137FE81915F017F
:100A1000B60190E00E946A0A21102A9421E0821A0D
:100A200091088114910471F7E8C0843611F0893679
:100A300041F5F80137FE07C06081718182819381A1
:100A40000C5F1F4F08C060817181072E000C880B5E
:100A5000990B0E5F1F4FF32DFF763F2E97FF09C0B6
:100A600090958095709561957F4F8F4F9F4FF0685F
:100A70003F2E2AE030E0A3010E94BF0A882E86188C
:100A800045C0853731F4232D2F7EB22E2AE030E089
:100A900025C0932D997FB92E8F36C1F018F4883573
:100AA00079F0B5C0803719F0883721F0B0C0E92F50
:100AB000E061BE2EB4FE0DC0FB2DF460BF2E09C058
:100AC00034FE0AC0292F2660B22E06C028E030E08E
:100AD00005C020E130E002C020E132E0F801B7FEBD
:100AE00007C060817181828193810C5F1F4F06C0B6
:100AF0006081718180E090E00E5F1F4FA3010E9432
:100B0000BF0A882E8618FB2DFF773F2E36FE0DC0BC
:100B1000232D2E7FA22E891458F434FE0BC032FCF4
:100B200009C0832D8E7EA82E05C0B82CA32C03C02F
:100B3000B82C01C0B92CA4FE0FC0FE01E80DF11DB8
:100B40008081803321F49A2D997EA92E09C0A2FEBE
:100B500006C0B394B39404C08A2D867809F0B39488
:100B6000A3FC11C0A0FE06C0B21488F4280C922C7D
:100B70009B180EC0B21460F4B60180E290E00E94AF
:100B80006A0AB394F7CFB21418F42B1802C0982C49
:100B9000212CA4FE10C0B60180E390E00E946A0AF6
:100BA000A2FE17C0A1FC03C088E790E002C088E560
:100BB00090E0B6010CC08A2D867859F0A1FE02C0E3
:100BC0008BE201C080E2A7FC8DE2B60190E00E94BA
:100BD0006A0A891438F4B60180E390E00E946A0A38
:100BE0009A94F7CF8A94F301E80DF11D8081B60144
:100BF00090E00E946A0A8110F5CF222009F442CECB
:100C0000B60180E290E00E946A0A2A94F6CFF601CB
:100C10008681978102C08FEF9FEF2B96E2E10C94C3
:100C20003C0B20FD09C0FC0123FD05C022FF02C0D2
:100C30007383628351834083089544FD17C046FD4A
:100C400017C0AB01BC01DA01FB01AA0FBB1FEE1FED
:100C5000FF1F1094D1F74A0F5B1F6E1F7F1FCB0140
:100C6000BA01660F771F881F991F09C033E001C0C2
:100C700034E0660F771F881F991F3150D1F7620F3C
:100C8000711D811D911D08950F931F93CF93DF93C5
:100C90008C01C8010E942C0AEC0197FD08C00E943B
:100CA000FB09892BB1F7B801CE010E94A60ACE013B
:100CB000DF91CF911F910F9108958F929F92AF92E4
:100CC000BF92EF92FF920F931F93CF93DF938C010C
:100CD000D62F7A01B22E0E942C0A9C0133272B3288
:100CE000310531F02D32310561F48B2D8068B82E3D
:100CF000D15011F480E068C0C8010E942C0A97FD11
:100D0000F9CFCB2DCD7F2B2D207309F58033F9F44E
:100D1000AA24AA94AD0E09F443C0C8010E942C0A6B
:100D200097FD3EC09C012F7D33272835310549F4BE
:100D3000C264D250A9F1C8010E942C0A97FF07C0D3
:100D40002FC0B6FE02C0C26001C0C261DA2D812C84
:100D5000912C540120ED280F283080F0C4FF04C0EE
:100D6000B8010E94A60A19C02A3040F0C6FFF8CF89
:100D70002F7D3FEE320F363098F727504C2FC501AC
:100D8000B4010E941D064B015C01C260D15059F0B4
:100D9000C8010E942C0A97FFDDCFC1FD04C0AACF75
:100DA000812C912C5401C7FF08C0B094A09490945A
:100DB0008094811C911CA11CB11C2C2FB501A40195
:100DC000C7010E94110681E0DF91CF911F910F9121
:100DD000FF90EF90BF90AF909F908F900895A0E20A
:100DE000B0E0E5EFF6E00C94230B5C01962E7A015F
:100DF000F9018E010F5F1F4F680180E2D8011D923B
:100E00008A95E9F7D50113968C9080E090E0612CEB
:100E1000712C30E061E070E083FC259183FE21912C
:100E20008F01522E211103C080E090E092C02E3538
:100E300011F4009751F1432F50E0481759073CF443
:100E40002D3559F12D3219F4772009F103C077209F
:100E500009F46AC0452D469546954695D601A40FDE
:100E6000B11D452D47708B0102C0000F111F4A951F
:100E7000E2F7A8015C91452B4C93651459F0561488
:100E800010F45394E7CF5A94E5CF31E004C07724AF
:100E9000739401C0712C0196BFCF772019F08E8119
:100EA00080628E83311103C08824839417C0F601B9
:100EB0009E012F5D3F4F8081809581932E173F07C4
:100EC000D1F7F2CFE114F10429F0D7018C93F701A7
:100ED00031967F019A94812C9920F9F0C5010E94E6
:100EE0002C0A97FD18C0FC01FF2723E0F595E79534
:100EF0002A95E1F7EC0DFD1D208130E0AC01477033
:100F0000552702C0359527954A95E2F720FDDACF9F
:100F1000B5010E94A60A811087CFE114F10411F0F7
:100F2000D7011C92C80115C0422F4695469546959B
:100F3000D601A40FB11D422F47708B0102C0000FD4
:100F4000111F4A95E2F7A8015C91452B4C93622E44
:100F5000A2CFA096EFE00C943F0BA0E0B0E0E3EB53
:100F6000F7E00C94230B6C01EB015A01FC01178292
:100F70001682512CF601E380FE01E3FC8591E3FE2D
:100F80008191182FEF01882309F4EEC090E00E94B0
:100F9000FB09892B21F0C6010E944406EBCF1532D4
:100FA00041F4FE01E3FC1591E3FE1191EF011532CE
:100FB00081F4C6010E942C0A97FDD4C0412F50E055
:100FC0009C01332724173507A9F2B6010E94A60A0F
:100FD000CBC01A3239F4E3FC1591E3FE1191EF0115
:100FE00001E001C000E0F12C20ED210F2A3080F457
:100FF00002606F2D70E080E090E040E20E941D06EC
:10100000F62EFE01E3FC1591E3FE1191EF01ECCF0A
:1010100001FF03C0F11003C0A7C0FF24FA941836E3
:1010200019F01C3651F010C0FE01E3FC1591E3FEEF
:101030001191EF01183641F408600460FE01E3FCF1
:101040001591E3FE1191EF01112309F48DC0612F79
:1010500070E088E690E00E94040A892B09F484C0BD
:1010600000FD07C0F50180809180C50102965C01FA
:1010700002C0812C912C1E3651F4F6014681578115
:1010800060E070E0202FC4010E94110673CF133678
:10109000A9F401FD02C0FF24F394C6010E942C0AAA
:1010A00097FD60C08114910429F0F4018083C4018C
:1010B00001964C01FA94F110F0CF50C01B3559F451
:1010C0009E01A4016F2DC6010E94EF06EC01892B41
:1010D00009F044C03EC0C6010E94440697FD42C0CC
:1010E0001F3661F128F4143639F1193651F128C050
:1010F000133771F0153701F123C08114910429F0E1
:10110000F4016082C40101964C01FA94FF2071F051
:10111000C6010E942C0A3C0197FD08C00E94FB09F1
:10112000892B59F3B601C3010E94A60A81149104C8
:10113000A9F0F401108212C0006203C0006101C076
:101140000064202FA4016F2DC6010E945D0681114D
:1011500005C0F6018381807329F406C000FD0ACF23
:10116000539408CF552019F0852D90E002C08FEFE1
:101170009FEFCDB7DEB7EFE00C943F0B0F931F93BB
:10118000CF93DF93869F8001879F100D969F100D50
:101190001124C8010E94DA08EC01009729F0A80187
:1011A00060E070E00E941A0ACE01DF91CF911F919A
:1011B0000F9108950F931F93CF93DF938230910582
:1011C00010F482E090E0E0914E02F0914F0220E0B6
:1011D00030E0A0E0B0E0309719F140815181028108
:1011E000138148175907C8F08417950769F41097B9
:1011F00031F012960C93129713961C9327C000930C
:101200004E0210934F0222C02115310519F04217EA
:10121000530718F49A01BD01EF01DF01F801DBCF9C
:1012200021153105F9F0281B390B2430310580F4E4
:101230008A819B816115710521F0FB019383828373
:1012400004C090934F0280934E02FE01329644C038
:10125000FE01E20FF31F81939193225031093983EC
:1012600028833AC020914C0230914D02232B41F447
:10127000209102013091030130934D0220934C02E2
:1012800020910001309101012115310541F42DB764
:101290003EB74091040150910501241B350BE091AC
:1012A0004C02F0914D02E217F307A0F42E1B3F0B06
:1012B0002817390778F0AC014E5F5F4F24173507C8
:1012C00048F04E0F5F1F50934D0240934C028193A4
:1012D000919302C0E0E0F0E0CF01DF91CF911F9148
:1012E0000F910895CF93DF93009709F481C0FC011B
:1012F000329713821282A0914E02B0914F02109742
:1013000081F420813181820F931F20914C02309112
:101310004D022817390751F5F0934D02E0934C0226
:1013200067C0ED0120E030E0CE17DF0740F44A81CE
:101330005B819E0141155105F1F0EA01F5CFD383A0
:10134000C28340815181840F951FC817D90759F472
:1013500088819981840F951F0296918380838A8169
:101360009B81938382832115310529F4F0934F02E9
:10137000E0934E023DC0E901FB83EA834991599114
:10138000C40FD51FEC17FD0761F480819181840F94
:10139000951F0296E90199838883828193819B83BB
:1013A0008A83E0E0F0E012968D919C91139700976C
:1013B00019F0FD01DC01F7CF8D919C9111979D01F2
:1013C0002E5F3F4F820F931F20914C0230914D02B0
:1013D0002817390769F4309729F410924F021092B8
:1013E0004E0202C013821282B0934D02A0934C02AF
:1013F000DF91CF91089591110C941D0B803219F05B
:1014000089508550C8F70895FC010590061621F013
:101410000020D9F7C00108953197CF010895FC014C
:101420000590615070400110D8F7809590958E0F0F
:101430009F1F0895DC0101C06D9341505040E0F7BB
:101440000895FC016150704001900110D8F780951B
:1014500090958E0F9F1F0895CF93DF93EC012B8102
:1014600020FF33C026FF0AC02F7B2B838E819F81F4
:1014700001969F838E838A8190E029C022FF0FC04E
:10148000E881F9818081082E000C990B009719F4EE
:1014900020622B831AC03196F983E8830EC0EA8557
:1014A000FB85099597FF09C02B81019611F080E219
:1014B00001C080E1822B8B8308C02E813F812F5F8A
:1014C0003F4F3F832E83992702C08FEF9FEFDF911D
:1014D000CF9108950F931F93CF93DF93FB01238147
:1014E00021FD03C08FEF9FEF2CC022FF16C0468165
:1014F0005781248135814217530744F4A081B1817B
:101500009D012F5F3F4F318320838C93268137814C
:101510002F5F3F4F3783268314C08B01EC01FB0103
:101520000084F185E02D0995892BE1F6D801169606
:101530008D919C911797019617969C938E93169771
:10154000CE01DF91CF911F910F910895FB0123816F
:1015500020FF12C026FD10C08F3F3FEF930761F0C0
:1015600082832F7D20642383268137812150310996
:1015700037832683992708958FEF9FEF0895FA0107
:10158000AA27283051F1203181F1E8946F936E7FC2
:101590006E5F7F4F8F4F9F4FAF4FB1E03ED0B4E0B3
:1015A0003CD0670F781F891F9A1FA11D680F791FF4
:1015B0008A1F911DA11D6A0F711D811D911DA11D05
:1015C00020D009F468943F912AE0269F1124301915
:1015D000305D3193DEF6CF010895462F4770405DB0
:1015E0004193B3E00FD0C9F7F6CF462F4F70405D5F
:1015F0004A3318F0495D31FD4052419302D0A9F7BA
:10160000EACFB4E0A6959795879577956795BA95B3
:10161000C9F700976105710508959B01AC010A2E79
:1016200006945795479537952795BA95C9F7620F50
:10163000731F841F951FA01D08959927882708955B
:101640002F923F924F925F926F927F928F929F92D2
:10165000AF92BF92CF92DF92EF92FF920F931F93C0
:10166000CF93DF93CDB7DEB7CA1BDB0B0FB6F89471
:10167000DEBF0FBECDBF09942A88398848885F84B1
:101680006E847D848C849B84AA84B984C884DF8022
:10169000EE80FD800C811B81AA81B981CE0FD11D06
:1016A0000FB6F894DEBF0FBECDBFED010895F894DC
:0216B000FFCF6A
:1016B200000050022000496E697469616C697A65A4
:1016C20064004F55522044454C4159203D20256429
:1016D2000A002563003120666F7220626C6F636BB3
:1016E200696E672064656C61792075730D00322024
:1016F200666F7220626C6F636B696E672064656CE3
:101702006179206D730D003320666F7220626C6FF9
:10171200636B696E672064656C617920730D0034B8
:1017220020666F72206E6F6E20626C6F636B696EE3
:10173200672064656C61792075730D003520666FD2
:1017420072206E6F6E20626C6F636B696E672064CD
:10175200656C6179206D730D003620666F72206EA4
:101762006F6E20626C6F636B696E672064656C617B
:101772007920730D006E6F6E2D626C6F636B696EF4
:10178200672064656C6179202564206D6963726FDE
:101792007365636F6E64730D0A006E6F6E2D626CFB
:1017A2006F636B696E672064656C617920256420C4
:1017B2006D696C6C697365636F6E64730D0A006E9C
:1017C2006F6E2D626C6F636B696E672064656C610E
:1017D20079202564207365636F6E64730D0A006E51
:1017E2006F6E20696E697469616C697A65640D0A4D
:0217F2000000F5
:00000001FF
